{
  "contractName": "HRC721",
  "abi": [
    {
      "inputs": [
        {
          "internalType": "address",
          "name": "_token",
          "type": "address"
        },
        {
          "internalType": "uint256",
          "name": "airdropExpiry",
          "type": "uint256"
        }
      ],
      "stateMutability": "nonpayable",
      "type": "constructor"
    },
    {
      "anonymous": false,
      "inputs": [
        {
          "indexed": true,
          "internalType": "address",
          "name": "_to",
          "type": "address"
        },
        {
          "indexed": false,
          "internalType": "uint256",
          "name": "_tokenId",
          "type": "uint256"
        }
      ],
      "name": "AirDrop",
      "type": "event"
    },
    {
      "anonymous": false,
      "inputs": [
        {
          "indexed": true,
          "internalType": "address",
          "name": "owner",
          "type": "address"
        },
        {
          "indexed": true,
          "internalType": "address",
          "name": "approved",
          "type": "address"
        },
        {
          "indexed": true,
          "internalType": "uint256",
          "name": "tokenId",
          "type": "uint256"
        }
      ],
      "name": "Approval",
      "type": "event"
    },
    {
      "anonymous": false,
      "inputs": [
        {
          "indexed": true,
          "internalType": "address",
          "name": "owner",
          "type": "address"
        },
        {
          "indexed": true,
          "internalType": "address",
          "name": "operator",
          "type": "address"
        },
        {
          "indexed": false,
          "internalType": "bool",
          "name": "approved",
          "type": "bool"
        }
      ],
      "name": "ApprovalForAll",
      "type": "event"
    },
    {
      "anonymous": false,
      "inputs": [
        {
          "indexed": true,
          "internalType": "address",
          "name": "_from",
          "type": "address"
        },
        {
          "indexed": true,
          "internalType": "address",
          "name": "_to",
          "type": "address"
        },
        {
          "indexed": false,
          "internalType": "uint256",
          "name": "_tokenId",
          "type": "uint256"
        }
      ],
      "name": "Mint",
      "type": "event"
    },
    {
      "anonymous": false,
      "inputs": [
        {
          "indexed": true,
          "internalType": "address",
          "name": "from",
          "type": "address"
        },
        {
          "indexed": true,
          "internalType": "address",
          "name": "to",
          "type": "address"
        },
        {
          "indexed": true,
          "internalType": "uint256",
          "name": "tokenId",
          "type": "uint256"
        }
      ],
      "name": "Transfer",
      "type": "event"
    },
    {
      "anonymous": false,
      "inputs": [
        {
          "indexed": true,
          "internalType": "address",
          "name": "_from",
          "type": "address"
        },
        {
          "indexed": true,
          "internalType": "address",
          "name": "_to",
          "type": "address"
        },
        {
          "indexed": false,
          "internalType": "uint256",
          "name": "_tokenId",
          "type": "uint256"
        }
      ],
      "name": "TransferBLU",
      "type": "event"
    },
    {
      "inputs": [
        {
          "internalType": "address",
          "name": "to",
          "type": "address"
        },
        {
          "internalType": "uint256",
          "name": "tokenId",
          "type": "uint256"
        }
      ],
      "name": "approve",
      "outputs": [],
      "stateMutability": "nonpayable",
      "type": "function"
    },
    {
      "inputs": [
        {
          "internalType": "address",
          "name": "owner",
          "type": "address"
        }
      ],
      "name": "balanceOf",
      "outputs": [
        {
          "internalType": "uint256",
          "name": "",
          "type": "uint256"
        }
      ],
      "stateMutability": "view",
      "type": "function"
    },
    {
      "inputs": [
        {
          "internalType": "uint256",
          "name": "tokenId",
          "type": "uint256"
        }
      ],
      "name": "getApproved",
      "outputs": [
        {
          "internalType": "address",
          "name": "",
          "type": "address"
        }
      ],
      "stateMutability": "view",
      "type": "function"
    },
    {
      "inputs": [
        {
          "internalType": "address",
          "name": "owner",
          "type": "address"
        },
        {
          "internalType": "address",
          "name": "operator",
          "type": "address"
        }
      ],
      "name": "isApprovedForAll",
      "outputs": [
        {
          "internalType": "bool",
          "name": "",
          "type": "bool"
        }
      ],
      "stateMutability": "view",
      "type": "function"
    },
    {
      "inputs": [],
      "name": "name",
      "outputs": [
        {
          "internalType": "string",
          "name": "",
          "type": "string"
        }
      ],
      "stateMutability": "view",
      "type": "function"
    },
    {
      "inputs": [
        {
          "internalType": "uint256",
          "name": "tokenId",
          "type": "uint256"
        }
      ],
      "name": "ownerOf",
      "outputs": [
        {
          "internalType": "address",
          "name": "",
          "type": "address"
        }
      ],
      "stateMutability": "view",
      "type": "function"
    },
    {
      "inputs": [
        {
          "internalType": "address",
          "name": "from",
          "type": "address"
        },
        {
          "internalType": "address",
          "name": "to",
          "type": "address"
        },
        {
          "internalType": "uint256",
          "name": "tokenId",
          "type": "uint256"
        }
      ],
      "name": "safeTransferFrom",
      "outputs": [],
      "stateMutability": "nonpayable",
      "type": "function"
    },
    {
      "inputs": [
        {
          "internalType": "address",
          "name": "from",
          "type": "address"
        },
        {
          "internalType": "address",
          "name": "to",
          "type": "address"
        },
        {
          "internalType": "uint256",
          "name": "tokenId",
          "type": "uint256"
        },
        {
          "internalType": "bytes",
          "name": "_data",
          "type": "bytes"
        }
      ],
      "name": "safeTransferFrom",
      "outputs": [],
      "stateMutability": "nonpayable",
      "type": "function"
    },
    {
      "inputs": [
        {
          "internalType": "address",
          "name": "operator",
          "type": "address"
        },
        {
          "internalType": "bool",
          "name": "approved",
          "type": "bool"
        }
      ],
      "name": "setApprovalForAll",
      "outputs": [],
      "stateMutability": "nonpayable",
      "type": "function"
    },
    {
      "inputs": [],
      "name": "symbol",
      "outputs": [
        {
          "internalType": "string",
          "name": "",
          "type": "string"
        }
      ],
      "stateMutability": "view",
      "type": "function"
    },
    {
      "inputs": [
        {
          "internalType": "uint256",
          "name": "index",
          "type": "uint256"
        }
      ],
      "name": "tokenByIndex",
      "outputs": [
        {
          "internalType": "uint256",
          "name": "",
          "type": "uint256"
        }
      ],
      "stateMutability": "view",
      "type": "function"
    },
    {
      "inputs": [
        {
          "internalType": "address",
          "name": "owner",
          "type": "address"
        },
        {
          "internalType": "uint256",
          "name": "index",
          "type": "uint256"
        }
      ],
      "name": "tokenOfOwnerByIndex",
      "outputs": [
        {
          "internalType": "uint256",
          "name": "",
          "type": "uint256"
        }
      ],
      "stateMutability": "view",
      "type": "function"
    },
    {
      "inputs": [],
      "name": "totalSupply",
      "outputs": [
        {
          "internalType": "uint256",
          "name": "",
          "type": "uint256"
        }
      ],
      "stateMutability": "view",
      "type": "function"
    },
    {
      "inputs": [
        {
          "internalType": "address",
          "name": "from",
          "type": "address"
        },
        {
          "internalType": "address",
          "name": "to",
          "type": "address"
        },
        {
          "internalType": "uint256",
          "name": "tokenId",
          "type": "uint256"
        }
      ],
      "name": "transferFrom",
      "outputs": [],
      "stateMutability": "nonpayable",
      "type": "function"
    },
    {
      "inputs": [
        {
          "internalType": "uint256",
          "name": "tokenId",
          "type": "uint256"
        }
      ],
      "name": "tokenURI",
      "outputs": [
        {
          "internalType": "string",
          "name": "",
          "type": "string"
        }
      ],
      "stateMutability": "view",
      "type": "function"
    },
    {
      "inputs": [
        {
          "internalType": "bytes4",
          "name": "interfaceId",
          "type": "bytes4"
        }
      ],
      "name": "supportsInterface",
      "outputs": [
        {
          "internalType": "bool",
          "name": "",
          "type": "bool"
        }
      ],
      "stateMutability": "view",
      "type": "function"
    },
    {
      "inputs": [
        {
          "internalType": "address",
          "name": "_user",
          "type": "address"
        },
        {
          "internalType": "uint256",
          "name": "tokenID",
          "type": "uint256"
        },
        {
          "internalType": "string",
          "name": "_tokenURI",
          "type": "string"
        }
      ],
      "name": "safemint",
      "outputs": [],
      "stateMutability": "nonpayable",
      "type": "function"
    },
    {
      "inputs": [
        {
          "internalType": "uint256",
          "name": "tokenID",
          "type": "uint256"
        }
      ],
      "name": "getToken",
      "outputs": [
        {
          "internalType": "int256",
          "name": "",
          "type": "int256"
        }
      ],
      "stateMutability": "view",
      "type": "function"
    },
    {
      "inputs": [
        {
          "internalType": "address",
          "name": "from",
          "type": "address"
        },
        {
          "internalType": "address",
          "name": "to",
          "type": "address"
        },
        {
          "internalType": "uint256",
          "name": "tokenID",
          "type": "uint256"
        }
      ],
      "name": "safeTransfer",
      "outputs": [],
      "stateMutability": "nonpayable",
      "type": "function"
    },
    {
      "inputs": [
        {
          "internalType": "uint256",
          "name": "timestamp",
          "type": "uint256"
        }
      ],
      "name": "updateExpiry",
      "outputs": [],
      "stateMutability": "nonpayable",
      "type": "function"
    }
  ],
  "bytecode": "0x60806040523480156200001157600080fd5b50604051620040453803806200404583398181016040528101906200003791906200031d565b6040518060400160405280600781526020017f426c753344414f000000000000000000000000000000000000000000000000008152506040518060400160405280600481526020017f426c7533000000000000000000000000000000000000000000000000000000008152508160009080519060200190620000bb929190620001c8565b508060019080519060200190620000d4929190620001c8565b5050506000600190505b6104e2811162000136577fffffffffffffffffffffffffffffffffffffffffffffffffffffffffffffffff600b60008381526020019081526020016000208190555080806200012d9062000393565b915050620000de565b5081600f60006101000a81548173ffffffffffffffffffffffffffffffffffffffff021916908373ffffffffffffffffffffffffffffffffffffffff16021790555033600d60006101000a81548173ffffffffffffffffffffffffffffffffffffffff021916908373ffffffffffffffffffffffffffffffffffffffff16021790555080600e81905550505062000446565b828054620001d69062000410565b90600052602060002090601f016020900481019282620001fa576000855562000246565b82601f106200021557805160ff191683800117855562000246565b8280016001018555821562000246579182015b828111156200024557825182559160200191906001019062000228565b5b50905062000255919062000259565b5090565b5b80821115620002745760008160009055506001016200025a565b5090565b600080fd5b600073ffffffffffffffffffffffffffffffffffffffff82169050919050565b6000620002aa826200027d565b9050919050565b620002bc816200029d565b8114620002c857600080fd5b50565b600081519050620002dc81620002b1565b92915050565b6000819050919050565b620002f781620002e2565b81146200030357600080fd5b50565b6000815190506200031781620002ec565b92915050565b6000806040838503121562000337576200033662000278565b5b60006200034785828601620002cb565b92505060206200035a8582860162000306565b9150509250929050565b7f4e487b7100000000000000000000000000000000000000000000000000000000600052601160045260246000fd5b6000620003a082620002e2565b91507fffffffffffffffffffffffffffffffffffffffffffffffffffffffffffffffff821415620003d657620003d562000364565b5b600182019050919050565b7f4e487b7100000000000000000000000000000000000000000000000000000000600052602260045260246000fd5b600060028204905060018216806200042957607f821691505b6020821081141562000440576200043f620003e1565b5b50919050565b613bef80620004566000396000f3fe608060405234801561001057600080fd5b506004361061012c5760003560e01c80636352211e116100ad578063c87b56dd11610071578063c87b56dd14610353578063d1660f9914610383578063d359f82c1461039f578063e4b50cb8146103bb578063e985e9c5146103eb5761012c565b80636352211e1461029d57806370a08231146102cd57806395d89b41146102fd578063a22cb4651461031b578063b88d4fde146103375761012c565b806318160ddd116100f457806318160ddd146101e757806323b872dd146102055780632f745c591461022157806342842e0e146102515780634f6ccce71461026d5761012c565b806301ffc9a714610131578063060d9ee41461016157806306fdde031461017d578063081812fc1461019b578063095ea7b3146101cb575b600080fd5b61014b6004803603810190610146919061258a565b61041b565b60405161015891906125d2565b60405180910390f35b61017b600480360381019061017691906127c7565b61042d565b005b61018561053b565b60405161019291906128be565b60405180910390f35b6101b560048036038101906101b091906128e0565b6105cd565b6040516101c2919061291c565b60405180910390f35b6101e560048036038101906101e09190612937565b610652565b005b6101ef61076a565b6040516101fc9190612986565b60405180910390f35b61021f600480360381019061021a91906129a1565b610777565b005b61023b60048036038101906102369190612937565b6107d7565b6040516102489190612986565b60405180910390f35b61026b600480360381019061026691906129a1565b61087c565b005b610287600480360381019061028291906128e0565b61089c565b6040516102949190612986565b60405180910390f35b6102b760048036038101906102b291906128e0565b61090d565b6040516102c4919061291c565b60405180910390f35b6102e760048036038101906102e291906129f4565b6109bf565b6040516102f49190612986565b60405180910390f35b610305610a77565b60405161031291906128be565b60405180910390f35b61033560048036038101906103309190612a4d565b610b09565b005b610351600480360381019061034c9190612b2e565b610b1f565b005b61036d600480360381019061036891906128e0565b610b81565b60405161037a91906128be565b60405180910390f35b61039d600480360381019061039891906129a1565b610b93565b005b6103b960048036038101906103b491906128e0565b610eff565b005b6103d560048036038101906103d091906128e0565b610fa5565b6040516103e29190612bca565b60405180910390f35b61040560048036038101906104009190612be5565b610fc2565b60405161041291906125d2565b60405180910390f35b600061042682611056565b9050919050565b600d60009054906101000a900473ffffffffffffffffffffffffffffffffffffffff1673ffffffffffffffffffffffffffffffffffffffff163373ffffffffffffffffffffffffffffffffffffffff16146104bd576040517f08c379a00000000000000000000000000000000000000000000000000000000081526004016104b490612c71565b60405180910390fd5b6104c783836110d0565b6104d182826110ee565b8273ffffffffffffffffffffffffffffffffffffffff163373ffffffffffffffffffffffffffffffffffffffff167fab8530f87dc9b59234c4623bf917212bb2536d647574c8e7e5da92c2ede0c9f88460405161052e9190612986565b60405180910390a3505050565b60606000805461054a90612cc0565b80601f016020809104026020016040519081016040528092919081815260200182805461057690612cc0565b80156105c35780601f10610598576101008083540402835291602001916105c3565b820191906000526020600020905b8154815290600101906020018083116105a657829003601f168201915b5050505050905090565b60006105d882611162565b610617576040517f08c379a000000000000000000000000000000000000000000000000000000000815260040161060e90612d64565b60405180910390fd5b6004600083815260200190815260200160002060009054906101000a900473ffffffffffffffffffffffffffffffffffffffff169050919050565b600061065d8261090d565b90508073ffffffffffffffffffffffffffffffffffffffff168373ffffffffffffffffffffffffffffffffffffffff1614156106ce576040517f08c379a00000000000000000000000000000000000000000000000000000000081526004016106c590612df6565b60405180910390fd5b8073ffffffffffffffffffffffffffffffffffffffff166106ed6111ce565b73ffffffffffffffffffffffffffffffffffffffff16148061071c575061071b816107166111ce565b610fc2565b5b61075b576040517f08c379a000000000000000000000000000000000000000000000000000000000815260040161075290612e88565b60405180910390fd5b61076583836111d6565b505050565b6000600880549050905090565b6107886107826111ce565b8261128f565b6107c7576040517f08c379a00000000000000000000000000000000000000000000000000000000081526004016107be90612f1a565b60405180910390fd5b6107d283838361136d565b505050565b60006107e2836109bf565b8210610823576040517f08c379a000000000000000000000000000000000000000000000000000000000815260040161081a90612fac565b60405180910390fd5b600660008473ffffffffffffffffffffffffffffffffffffffff1673ffffffffffffffffffffffffffffffffffffffff168152602001908152602001600020600083815260200190815260200160002054905092915050565b61089783838360405180602001604052806000815250610b1f565b505050565b60006108a661076a565b82106108e7576040517f08c379a00000000000000000000000000000000000000000000000000000000081526004016108de9061303e565b60405180910390fd5b600882815481106108fb576108fa61305e565b5b90600052602060002001549050919050565b6000806002600084815260200190815260200160002060009054906101000a900473ffffffffffffffffffffffffffffffffffffffff169050600073ffffffffffffffffffffffffffffffffffffffff168173ffffffffffffffffffffffffffffffffffffffff1614156109b6576040517f08c379a00000000000000000000000000000000000000000000000000000000081526004016109ad906130ff565b60405180910390fd5b80915050919050565b60008073ffffffffffffffffffffffffffffffffffffffff168273ffffffffffffffffffffffffffffffffffffffff161415610a30576040517f08c379a0000000000000000000000000000000000000000000000000000000008152600401610a2790613191565b60405180910390fd5b600360008373ffffffffffffffffffffffffffffffffffffffff1673ffffffffffffffffffffffffffffffffffffffff168152602001908152602001600020549050919050565b606060018054610a8690612cc0565b80601f0160208091040260200160405190810160405280929190818152602001828054610ab290612cc0565b8015610aff5780601f10610ad457610100808354040283529160200191610aff565b820191906000526020600020905b815481529060010190602001808311610ae257829003601f168201915b5050505050905090565b610b1b610b146111ce565b83836115d4565b5050565b610b30610b2a6111ce565b8361128f565b610b6f576040517f08c379a0000000000000000000000000000000000000000000000000000000008152600401610b6690612f1a565b60405180910390fd5b610b7b84848484611741565b50505050565b6060610b8c8261179d565b9050919050565b610b9e83838361087c565b8173ffffffffffffffffffffffffffffffffffffffff168373ffffffffffffffffffffffffffffffffffffffff167fdd651628848cee35472a563c2112f04417e22c07fa297f3b1dfe190126b331de83604051610bfb9190612986565b60405180910390a3600b60008281526020019081526020016000206000815480929190610c27906131e0565b91905055506000600b600083815260200190815260200160002054148015610c545750610c526118ef565b155b15610efa5760018110158015610c6c57506103e88111155b15610d1f57600f60009054906101000a900473ffffffffffffffffffffffffffffffffffffffff1673ffffffffffffffffffffffffffffffffffffffff1663a9059cbb83678ac7230489e800006040518363ffffffff1660e01b8152600401610cd692919061326e565b6020604051808303816000875af1158015610cf5573d6000803e3d6000fd5b505050506040513d601f19601f82011682018060405250810190610d1991906132ac565b50610eab565b6103e881118015610d3257506104b08111155b15610de657600f60009054906101000a900473ffffffffffffffffffffffffffffffffffffffff1673ffffffffffffffffffffffffffffffffffffffff1663a9059cbb836802b5e3af16b18800006040518363ffffffff1660e01b8152600401610d9d929190613314565b6020604051808303816000875af1158015610dbc573d6000803e3d6000fd5b505050506040513d601f19601f82011682018060405250810190610de091906132ac565b50610eaa565b6104b081118015610df957506104e28111155b15610ea957600f60009054906101000a900473ffffffffffffffffffffffffffffffffffffffff1673ffffffffffffffffffffffffffffffffffffffff1663a9059cbb8368056bc75e2d631000006040518363ffffffff1660e01b8152600401610e64929190613378565b6020604051808303816000875af1158015610e83573d6000803e3d6000fd5b505050506040513d601f19601f82011682018060405250810190610ea791906132ac565b505b5b5b8173ffffffffffffffffffffffffffffffffffffffff167f2a2f3a6f457f222229acc6b14376a5d3f4344fae935675150a096e2f1056bd9882604051610ef19190612986565b60405180910390a25b505050565b600d60009054906101000a900473ffffffffffffffffffffffffffffffffffffffff1673ffffffffffffffffffffffffffffffffffffffff163373ffffffffffffffffffffffffffffffffffffffff1614610f8f576040517f08c379a0000000000000000000000000000000000000000000000000000000008152600401610f8690612c71565b60405180910390fd5b428111610f9b57600080fd5b80600e8190555050565b6000600b6000838152602001908152602001600020549050919050565b6000600560008473ffffffffffffffffffffffffffffffffffffffff1673ffffffffffffffffffffffffffffffffffffffff16815260200190815260200160002060008373ffffffffffffffffffffffffffffffffffffffff1673ffffffffffffffffffffffffffffffffffffffff16815260200190815260200160002060009054906101000a900460ff16905092915050565b60007f780e9d63000000000000000000000000000000000000000000000000000000007bffffffffffffffffffffffffffffffffffffffffffffffffffffffff1916827bffffffffffffffffffffffffffffffffffffffffffffffffffffffff191614806110c957506110c8826118fc565b5b9050919050565b6110ea8282604051806020016040528060008152506119de565b5050565b6110f782611162565b611136576040517f08c379a000000000000000000000000000000000000000000000000000000000815260040161112d90613413565b60405180910390fd5b80600a6000848152602001908152602001600020908051906020019061115d92919061247b565b505050565b60008073ffffffffffffffffffffffffffffffffffffffff166002600084815260200190815260200160002060009054906101000a900473ffffffffffffffffffffffffffffffffffffffff1673ffffffffffffffffffffffffffffffffffffffff1614159050919050565b600033905090565b816004600083815260200190815260200160002060006101000a81548173ffffffffffffffffffffffffffffffffffffffff021916908373ffffffffffffffffffffffffffffffffffffffff160217905550808273ffffffffffffffffffffffffffffffffffffffff166112498361090d565b73ffffffffffffffffffffffffffffffffffffffff167f8c5be1e5ebec7d5bd14f71427d1e84f3dd0314c0f7b2291e5b200ac8c7c3b92560405160405180910390a45050565b600061129a82611162565b6112d9576040517f08c379a00000000000000000000000000000000000000000000000000000000081526004016112d0906134a5565b60405180910390fd5b60006112e48361090d565b90508073ffffffffffffffffffffffffffffffffffffffff168473ffffffffffffffffffffffffffffffffffffffff16148061135357508373ffffffffffffffffffffffffffffffffffffffff1661133b846105cd565b73ffffffffffffffffffffffffffffffffffffffff16145b8061136457506113638185610fc2565b5b91505092915050565b8273ffffffffffffffffffffffffffffffffffffffff1661138d8261090d565b73ffffffffffffffffffffffffffffffffffffffff16146113e3576040517f08c379a00000000000000000000000000000000000000000000000000000000081526004016113da90613537565b60405180910390fd5b600073ffffffffffffffffffffffffffffffffffffffff168273ffffffffffffffffffffffffffffffffffffffff161415611453576040517f08c379a000000000000000000000000000000000000000000000000000000000815260040161144a906135c9565b60405180910390fd5b61145e838383611a39565b6114696000826111d6565b6001600360008573ffffffffffffffffffffffffffffffffffffffff1673ffffffffffffffffffffffffffffffffffffffff16815260200190815260200160002060008282546114b991906135e9565b925050819055506001600360008473ffffffffffffffffffffffffffffffffffffffff1673ffffffffffffffffffffffffffffffffffffffff1681526020019081526020016000206000828254611510919061361d565b92505081905550816002600083815260200190815260200160002060006101000a81548173ffffffffffffffffffffffffffffffffffffffff021916908373ffffffffffffffffffffffffffffffffffffffff160217905550808273ffffffffffffffffffffffffffffffffffffffff168473ffffffffffffffffffffffffffffffffffffffff167fddf252ad1be2c89b69c2b068fc378daa952ba7f163c4a11628f55a4df523b3ef60405160405180910390a46115cf838383611a49565b505050565b8173ffffffffffffffffffffffffffffffffffffffff168373ffffffffffffffffffffffffffffffffffffffff161415611643576040517f08c379a000000000000000000000000000000000000000000000000000000000815260040161163a906136bf565b60405180910390fd5b80600560008573ffffffffffffffffffffffffffffffffffffffff1673ffffffffffffffffffffffffffffffffffffffff16815260200190815260200160002060008473ffffffffffffffffffffffffffffffffffffffff1673ffffffffffffffffffffffffffffffffffffffff16815260200190815260200160002060006101000a81548160ff0219169083151502179055508173ffffffffffffffffffffffffffffffffffffffff168373ffffffffffffffffffffffffffffffffffffffff167f17307eab39ab6107e8899845ad3d59bd9653f200f220920489ca2b5937696c318360405161173491906125d2565b60405180910390a3505050565b61174c84848461136d565b61175884848484611a4e565b611797576040517f08c379a000000000000000000000000000000000000000000000000000000000815260040161178e90613751565b60405180910390fd5b50505050565b60606117a882611162565b6117e7576040517f08c379a00000000000000000000000000000000000000000000000000000000081526004016117de906137e3565b60405180910390fd5b6000600a6000848152602001908152602001600020805461180790612cc0565b80601f016020809104026020016040519081016040528092919081815260200182805461183390612cc0565b80156118805780601f1061185557610100808354040283529160200191611880565b820191906000526020600020905b81548152906001019060200180831161186357829003601f168201915b505050505090506000611891611bd6565b90506000815114156118a75781925050506118ea565b6000825111156118dc5780826040516020016118c492919061383f565b604051602081830303815290604052925050506118ea565b6118e584611bed565b925050505b919050565b6000600e54421015905090565b60007f80ac58cd000000000000000000000000000000000000000000000000000000007bffffffffffffffffffffffffffffffffffffffffffffffffffffffff1916827bffffffffffffffffffffffffffffffffffffffffffffffffffffffff191614806119c757507f5b5e139f000000000000000000000000000000000000000000000000000000007bffffffffffffffffffffffffffffffffffffffffffffffffffffffff1916827bffffffffffffffffffffffffffffffffffffffffffffffffffffffff1916145b806119d757506119d682611c94565b5b9050919050565b6119e88383611cfe565b6119f56000848484611a4e565b611a34576040517f08c379a0000000000000000000000000000000000000000000000000000000008152600401611a2b90613751565b60405180910390fd5b505050565b611a44838383611ed8565b505050565b505050565b6000611a6f8473ffffffffffffffffffffffffffffffffffffffff16611fec565b15611bc9578373ffffffffffffffffffffffffffffffffffffffff1663150b7a02611a986111ce565b8786866040518563ffffffff1660e01b8152600401611aba94939291906138b8565b6020604051808303816000875af1925050508015611af657506040513d601f19601f82011682018060405250810190611af39190613919565b60015b611b79573d8060008114611b26576040519150601f19603f3d011682016040523d82523d6000602084013e611b2b565b606091505b50600081511415611b71576040517f08c379a0000000000000000000000000000000000000000000000000000000008152600401611b6890613751565b60405180910390fd5b805181602001fd5b63150b7a0260e01b7bffffffffffffffffffffffffffffffffffffffffffffffffffffffff1916817bffffffffffffffffffffffffffffffffffffffffffffffffffffffff191614915050611bce565b600190505b949350505050565b606060405180602001604052806000815250905090565b6060611bf882611162565b611c37576040517f08c379a0000000000000000000000000000000000000000000000000000000008152600401611c2e906139b8565b60405180910390fd5b6000611c41611bd6565b90506000815111611c615760405180602001604052806000815250611c8c565b80611c6b8461200f565b604051602001611c7c92919061383f565b6040516020818303038152906040525b915050919050565b60007f01ffc9a7000000000000000000000000000000000000000000000000000000007bffffffffffffffffffffffffffffffffffffffffffffffffffffffff1916827bffffffffffffffffffffffffffffffffffffffffffffffffffffffff1916149050919050565b600073ffffffffffffffffffffffffffffffffffffffff168273ffffffffffffffffffffffffffffffffffffffff161415611d6e576040517f08c379a0000000000000000000000000000000000000000000000000000000008152600401611d6590613a24565b60405180910390fd5b611d7781611162565b15611db7576040517f08c379a0000000000000000000000000000000000000000000000000000000008152600401611dae90613a90565b60405180910390fd5b611dc360008383611a39565b6001600360008473ffffffffffffffffffffffffffffffffffffffff1673ffffffffffffffffffffffffffffffffffffffff1681526020019081526020016000206000828254611e13919061361d565b92505081905550816002600083815260200190815260200160002060006101000a81548173ffffffffffffffffffffffffffffffffffffffff021916908373ffffffffffffffffffffffffffffffffffffffff160217905550808273ffffffffffffffffffffffffffffffffffffffff16600073ffffffffffffffffffffffffffffffffffffffff167fddf252ad1be2c89b69c2b068fc378daa952ba7f163c4a11628f55a4df523b3ef60405160405180910390a4611ed460008383611a49565b5050565b611ee3838383612170565b600073ffffffffffffffffffffffffffffffffffffffff168373ffffffffffffffffffffffffffffffffffffffff161415611f2657611f2181612175565b611f65565b8173ffffffffffffffffffffffffffffffffffffffff168373ffffffffffffffffffffffffffffffffffffffff1614611f6457611f6383826121be565b5b5b600073ffffffffffffffffffffffffffffffffffffffff168273ffffffffffffffffffffffffffffffffffffffff161415611fa857611fa38161232b565b611fe7565b8273ffffffffffffffffffffffffffffffffffffffff168273ffffffffffffffffffffffffffffffffffffffff1614611fe657611fe582826123fc565b5b5b505050565b6000808273ffffffffffffffffffffffffffffffffffffffff163b119050919050565b60606000821415612057576040518060400160405280600181526020017f3000000000000000000000000000000000000000000000000000000000000000815250905061216b565b600082905060005b6000821461208957808061207290613ab0565b915050600a826120829190613b28565b915061205f565b60008167ffffffffffffffff8111156120a5576120a461269c565b5b6040519080825280601f01601f1916602001820160405280156120d75781602001600182028036833780820191505090505b5090505b60008514612164576001826120f091906135e9565b9150600a856120ff9190613b59565b603061210b919061361d565b60f81b8183815181106121215761212061305e565b5b60200101907effffffffffffffffffffffffffffffffffffffffffffffffffffffffffffff1916908160001a905350600a8561215d9190613b28565b94506120db565b8093505050505b919050565b505050565b6008805490506009600083815260200190815260200160002081905550600881908060018154018082558091505060019003906000526020600020016000909190919091505550565b600060016121cb846109bf565b6121d591906135e9565b90506000600760008481526020019081526020016000205490508181146122ba576000600660008673ffffffffffffffffffffffffffffffffffffffff1673ffffffffffffffffffffffffffffffffffffffff168152602001908152602001600020600084815260200190815260200160002054905080600660008773ffffffffffffffffffffffffffffffffffffffff1673ffffffffffffffffffffffffffffffffffffffff168152602001908152602001600020600084815260200190815260200160002081905550816007600083815260200190815260200160002081905550505b6007600084815260200190815260200160002060009055600660008573ffffffffffffffffffffffffffffffffffffffff1673ffffffffffffffffffffffffffffffffffffffff16815260200190815260200160002060008381526020019081526020016000206000905550505050565b6000600160088054905061233f91906135e9565b905060006009600084815260200190815260200160002054905060006008838154811061236f5761236e61305e565b5b9060005260206000200154905080600883815481106123915761239061305e565b5b9060005260206000200181905550816009600083815260200190815260200160002081905550600960008581526020019081526020016000206000905560088054806123e0576123df613b8a565b5b6001900381819060005260206000200160009055905550505050565b6000612407836109bf565b905081600660008573ffffffffffffffffffffffffffffffffffffffff1673ffffffffffffffffffffffffffffffffffffffff168152602001908152602001600020600083815260200190815260200160002081905550806007600084815260200190815260200160002081905550505050565b82805461248790612cc0565b90600052602060002090601f0160209004810192826124a957600085556124f0565b82601f106124c257805160ff19168380011785556124f0565b828001600101855582156124f0579182015b828111156124ef5782518255916020019190600101906124d4565b5b5090506124fd9190612501565b5090565b5b8082111561251a576000816000905550600101612502565b5090565b6000604051905090565b600080fd5b600080fd5b60007fffffffff0000000000000000000000000000000000000000000000000000000082169050919050565b61256781612532565b811461257257600080fd5b50565b6000813590506125848161255e565b92915050565b6000602082840312156125a05761259f612528565b5b60006125ae84828501612575565b91505092915050565b60008115159050919050565b6125cc816125b7565b82525050565b60006020820190506125e760008301846125c3565b92915050565b600073ffffffffffffffffffffffffffffffffffffffff82169050919050565b6000612618826125ed565b9050919050565b6126288161260d565b811461263357600080fd5b50565b6000813590506126458161261f565b92915050565b6000819050919050565b61265e8161264b565b811461266957600080fd5b50565b60008135905061267b81612655565b92915050565b600080fd5b600080fd5b6000601f19601f8301169050919050565b7f4e487b7100000000000000000000000000000000000000000000000000000000600052604160045260246000fd5b6126d48261268b565b810181811067ffffffffffffffff821117156126f3576126f261269c565b5b80604052505050565b600061270661251e565b905061271282826126cb565b919050565b600067ffffffffffffffff8211156127325761273161269c565b5b61273b8261268b565b9050602081019050919050565b82818337600083830152505050565b600061276a61276584612717565b6126fc565b90508281526020810184848401111561278657612785612686565b5b612791848285612748565b509392505050565b600082601f8301126127ae576127ad612681565b5b81356127be848260208601612757565b91505092915050565b6000806000606084860312156127e0576127df612528565b5b60006127ee86828701612636565b93505060206127ff8682870161266c565b925050604084013567ffffffffffffffff8111156128205761281f61252d565b5b61282c86828701612799565b9150509250925092565b600081519050919050565b600082825260208201905092915050565b60005b83811015612870578082015181840152602081019050612855565b8381111561287f576000848401525b50505050565b600061289082612836565b61289a8185612841565b93506128aa818560208601612852565b6128b38161268b565b840191505092915050565b600060208201905081810360008301526128d88184612885565b905092915050565b6000602082840312156128f6576128f5612528565b5b60006129048482850161266c565b91505092915050565b6129168161260d565b82525050565b6000602082019050612931600083018461290d565b92915050565b6000806040838503121561294e5761294d612528565b5b600061295c85828601612636565b925050602061296d8582860161266c565b9150509250929050565b6129808161264b565b82525050565b600060208201905061299b6000830184612977565b92915050565b6000806000606084860312156129ba576129b9612528565b5b60006129c886828701612636565b93505060206129d986828701612636565b92505060406129ea8682870161266c565b9150509250925092565b600060208284031215612a0a57612a09612528565b5b6000612a1884828501612636565b91505092915050565b612a2a816125b7565b8114612a3557600080fd5b50565b600081359050612a4781612a21565b92915050565b60008060408385031215612a6457612a63612528565b5b6000612a7285828601612636565b9250506020612a8385828601612a38565b9150509250929050565b600067ffffffffffffffff821115612aa857612aa761269c565b5b612ab18261268b565b9050602081019050919050565b6000612ad1612acc84612a8d565b6126fc565b905082815260208101848484011115612aed57612aec612686565b5b612af8848285612748565b509392505050565b600082601f830112612b1557612b14612681565b5b8135612b25848260208601612abe565b91505092915050565b60008060008060808587031215612b4857612b47612528565b5b6000612b5687828801612636565b9450506020612b6787828801612636565b9350506040612b788782880161266c565b925050606085013567ffffffffffffffff811115612b9957612b9861252d565b5b612ba587828801612b00565b91505092959194509250565b6000819050919050565b612bc481612bb1565b82525050565b6000602082019050612bdf6000830184612bbb565b92915050565b60008060408385031215612bfc57612bfb612528565b5b6000612c0a85828601612636565b9250506020612c1b85828601612636565b9150509250929050565b7f43616c6c6572206973206e6f7420746865206f776e6572000000000000000000600082015250565b6000612c5b601783612841565b9150612c6682612c25565b602082019050919050565b60006020820190508181036000830152612c8a81612c4e565b9050919050565b7f4e487b7100000000000000000000000000000000000000000000000000000000600052602260045260246000fd5b60006002820490506001821680612cd857607f821691505b60208210811415612cec57612ceb612c91565b5b50919050565b7f4552433732313a20617070726f76656420717565727920666f72206e6f6e657860008201527f697374656e7420746f6b656e0000000000000000000000000000000000000000602082015250565b6000612d4e602c83612841565b9150612d5982612cf2565b604082019050919050565b60006020820190508181036000830152612d7d81612d41565b9050919050565b7f4552433732313a20617070726f76616c20746f2063757272656e74206f776e6560008201527f7200000000000000000000000000000000000000000000000000000000000000602082015250565b6000612de0602183612841565b9150612deb82612d84565b604082019050919050565b60006020820190508181036000830152612e0f81612dd3565b9050919050565b7f4552433732313a20617070726f76652063616c6c6572206973206e6f74206f7760008201527f6e6572206e6f7220617070726f76656420666f7220616c6c0000000000000000602082015250565b6000612e72603883612841565b9150612e7d82612e16565b604082019050919050565b60006020820190508181036000830152612ea181612e65565b9050919050565b7f4552433732313a207472616e736665722063616c6c6572206973206e6f74206f60008201527f776e6572206e6f7220617070726f766564000000000000000000000000000000602082015250565b6000612f04603183612841565b9150612f0f82612ea8565b604082019050919050565b60006020820190508181036000830152612f3381612ef7565b9050919050565b7f455243373231456e756d657261626c653a206f776e657220696e646578206f7560008201527f74206f6620626f756e6473000000000000000000000000000000000000000000602082015250565b6000612f96602b83612841565b9150612fa182612f3a565b604082019050919050565b60006020820190508181036000830152612fc581612f89565b9050919050565b7f455243373231456e756d657261626c653a20676c6f62616c20696e646578206f60008201527f7574206f6620626f756e64730000000000000000000000000000000000000000602082015250565b6000613028602c83612841565b915061303382612fcc565b604082019050919050565b600060208201905081810360008301526130578161301b565b9050919050565b7f4e487b7100000000000000000000000000000000000000000000000000000000600052603260045260246000fd5b7f4552433732313a206f776e657220717565727920666f72206e6f6e657869737460008201527f656e7420746f6b656e0000000000000000000000000000000000000000000000602082015250565b60006130e9602983612841565b91506130f48261308d565b604082019050919050565b60006020820190508181036000830152613118816130dc565b9050919050565b7f4552433732313a2062616c616e636520717565727920666f7220746865207a6560008201527f726f206164647265737300000000000000000000000000000000000000000000602082015250565b600061317b602a83612841565b91506131868261311f565b604082019050919050565b600060208201905081810360008301526131aa8161316e565b9050919050565b7f4e487b7100000000000000000000000000000000000000000000000000000000600052601160045260246000fd5b60006131eb82612bb1565b91507f7fffffffffffffffffffffffffffffffffffffffffffffffffffffffffffffff82141561321e5761321d6131b1565b5b600182019050919050565b6000819050919050565b6000819050919050565b600061325861325361324e84613229565b613233565b61264b565b9050919050565b6132688161323d565b82525050565b6000604082019050613283600083018561290d565b613290602083018461325f565b9392505050565b6000815190506132a681612a21565b92915050565b6000602082840312156132c2576132c1612528565b5b60006132d084828501613297565b91505092915050565b6000819050919050565b60006132fe6132f96132f4846132d9565b613233565b61264b565b9050919050565b61330e816132e3565b82525050565b6000604082019050613329600083018561290d565b6133366020830184613305565b9392505050565b6000819050919050565b600061336261335d6133588461333d565b613233565b61264b565b9050919050565b61337281613347565b82525050565b600060408201905061338d600083018561290d565b61339a6020830184613369565b9392505050565b7f45524337323155524953746f726167653a2055524920736574206f66206e6f6e60008201527f6578697374656e7420746f6b656e000000000000000000000000000000000000602082015250565b60006133fd602e83612841565b9150613408826133a1565b604082019050919050565b6000602082019050818103600083015261342c816133f0565b9050919050565b7f4552433732313a206f70657261746f7220717565727920666f72206e6f6e657860008201527f697374656e7420746f6b656e0000000000000000000000000000000000000000602082015250565b600061348f602c83612841565b915061349a82613433565b604082019050919050565b600060208201905081810360008301526134be81613482565b9050919050565b7f4552433732313a207472616e736665722066726f6d20696e636f72726563742060008201527f6f776e6572000000000000000000000000000000000000000000000000000000602082015250565b6000613521602583612841565b915061352c826134c5565b604082019050919050565b6000602082019050818103600083015261355081613514565b9050919050565b7f4552433732313a207472616e7366657220746f20746865207a65726f2061646460008201527f7265737300000000000000000000000000000000000000000000000000000000602082015250565b60006135b3602483612841565b91506135be82613557565b604082019050919050565b600060208201905081810360008301526135e2816135a6565b9050919050565b60006135f48261264b565b91506135ff8361264b565b925082821015613612576136116131b1565b5b828203905092915050565b60006136288261264b565b91506136338361264b565b9250827fffffffffffffffffffffffffffffffffffffffffffffffffffffffffffffffff03821115613668576136676131b1565b5b828201905092915050565b7f4552433732313a20617070726f766520746f2063616c6c657200000000000000600082015250565b60006136a9601983612841565b91506136b482613673565b602082019050919050565b600060208201905081810360008301526136d88161369c565b9050919050565b7f4552433732313a207472616e7366657220746f206e6f6e20455243373231526560008201527f63656976657220696d706c656d656e7465720000000000000000000000000000602082015250565b600061373b603283612841565b9150613746826136df565b604082019050919050565b6000602082019050818103600083015261376a8161372e565b9050919050565b7f45524337323155524953746f726167653a2055524920717565727920666f722060008201527f6e6f6e6578697374656e7420746f6b656e000000000000000000000000000000602082015250565b60006137cd603183612841565b91506137d882613771565b604082019050919050565b600060208201905081810360008301526137fc816137c0565b9050919050565b600081905092915050565b600061381982612836565b6138238185613803565b9350613833818560208601612852565b80840191505092915050565b600061384b828561380e565b9150613857828461380e565b91508190509392505050565b600081519050919050565b600082825260208201905092915050565b600061388a82613863565b613894818561386e565b93506138a4818560208601612852565b6138ad8161268b565b840191505092915050565b60006080820190506138cd600083018761290d565b6138da602083018661290d565b6138e76040830185612977565b81810360608301526138f9818461387f565b905095945050505050565b6000815190506139138161255e565b92915050565b60006020828403121561392f5761392e612528565b5b600061393d84828501613904565b91505092915050565b7f4552433732314d657461646174613a2055524920717565727920666f72206e6f60008201527f6e6578697374656e7420746f6b656e0000000000000000000000000000000000602082015250565b60006139a2602f83612841565b91506139ad82613946565b604082019050919050565b600060208201905081810360008301526139d181613995565b9050919050565b7f4552433732313a206d696e7420746f20746865207a65726f2061646472657373600082015250565b6000613a0e602083612841565b9150613a19826139d8565b602082019050919050565b60006020820190508181036000830152613a3d81613a01565b9050919050565b7f4552433732313a20746f6b656e20616c7265616479206d696e74656400000000600082015250565b6000613a7a601c83612841565b9150613a8582613a44565b602082019050919050565b60006020820190508181036000830152613aa981613a6d565b9050919050565b6000613abb8261264b565b91507fffffffffffffffffffffffffffffffffffffffffffffffffffffffffffffffff821415613aee57613aed6131b1565b5b600182019050919050565b7f4e487b7100000000000000000000000000000000000000000000000000000000600052601260045260246000fd5b6000613b338261264b565b9150613b3e8361264b565b925082613b4e57613b4d613af9565b5b828204905092915050565b6000613b648261264b565b9150613b6f8361264b565b925082613b7f57613b7e613af9565b5b828206905092915050565b7f4e487b7100000000000000000000000000000000000000000000000000000000600052603160045260246000fdfea2646970667358221220e4afccdd3ed82d5c70021626f46daa1977567858fdb2a40a25a1afa352a5d61964736f6c634300080b0033",
  "immutableReferences": {},
  "source": "//SPDX-License-Identifier: UNLICENSED\npragma solidity ^0.8.10;\n\nimport \"@openzeppelin/contracts/access/Ownable.sol\";\nimport \"@openzeppelin/contracts/token/ERC721/ERC721.sol\";\nimport \"@openzeppelin/contracts/token/ERC20/IERC20.sol\";\nimport \"@openzeppelin/contracts/token/ERC721/extensions/ERC721Enumerable.sol\";\nimport \"@openzeppelin/contracts/token/ERC721/extensions/ERC721URIStorage.sol\";\n\n//HRC721 contract to deploy and mint NFT\ncontract HRC721 is ERC721(\"Blu3DAO\", \"Blu3\"),ERC721Enumerable,ERC721URIStorage {\n    mapping(uint256 => int256) private tokenIdMappings;\n    address addressOwner;\n    address private owner;\n    uint256 expiryDate;\n\n    //token that needed to be airdropped\n    IERC20 bluTokenAddress;\n\n    //event to be emmitted when the minting is succeeded\n    event Mint(address indexed _from, address indexed _to, uint256 _tokenId);\n\n    //emit when someone transfering/buying BLU NFT\n    event TransferBLU(\n        address indexed _from,\n        address indexed _to,\n        uint256 _tokenId\n    );\n\n    //emitting Airdrop event whenever the tokens are airdropped to an address\n    event AirDrop(address indexed _to, uint256 _tokenId);\n\n    modifier onlyOwner() {\n        require(msg.sender == owner, \"Caller is not the owner\");\n        _;\n    }\n\n     function _beforeTokenTransfer(address from, address to, uint256 tokenId)\n        internal\n        override(ERC721, ERC721Enumerable)\n    {\n        super._beforeTokenTransfer(from, to, tokenId);\n    }\n\n    function _burn(uint256 tokenId) internal override(ERC721, ERC721URIStorage) {\n        super._burn(tokenId);\n    }\n\n    function tokenURI(uint256 tokenId)\n        public\n        view\n        override(ERC721, ERC721URIStorage)\n        returns (string memory)\n    {\n        return super.tokenURI(tokenId);\n    }\n\n    function supportsInterface(bytes4 interfaceId)\n        public\n        view\n        override(ERC721, ERC721Enumerable)\n        returns (bool)\n    {\n        return super.supportsInterface(interfaceId);\n    }\n\n    constructor(address _token, uint256 airdropExpiry) {\n        for (uint256 i = 1; i <= 1250; i++) {\n            tokenIdMappings[i] = -1;\n        }\n        bluTokenAddress = IERC20(_token);\n        owner = msg.sender;\n        expiryDate = airdropExpiry;\n    }\n\n    //minting the NFT tokens by the owner of the contract\n    function safemint(\n        address _user,\n        uint256 tokenID,\n        string memory _tokenURI\n    ) public onlyOwner {\n        _safeMint(_user, tokenID);\n        _setTokenURI(tokenID,_tokenURI);\n        emit Mint(msg.sender, _user, tokenID);\n    }\n\n    function getToken(uint256 tokenID) public view returns (int256) {\n        return tokenIdMappings[tokenID];\n    }\n\n    /*\n    tranfering the NFT token from one user to another and \n    if an NFT is first time then the user will be airdropped with the social tokens\n    */\n    function safeTransfer(\n        address from,\n        address to,\n        uint256 tokenID\n    ) public {\n        safeTransferFrom(from, to, tokenID);\n        emit TransferBLU(from, to, tokenID);\n        tokenIdMappings[tokenID]++;\n        if (tokenIdMappings[tokenID] == 0 && !isExpired()) {\n            if (tokenID >= 1 && tokenID <= 1000)\n                bluTokenAddress.transfer(to, 10 * 10 ** 18);\n            else if (tokenID > 1000 && tokenID <= 1200)\n                bluTokenAddress.transfer(to, 50 * 10 ** 18);\n            else if (tokenID > 1200 && tokenID <= 1250)\n                bluTokenAddress.transfer(to, 100 * 10 ** 18);\n            emit AirDrop(to, tokenID);\n        }\n    }\n\n    function isExpired() private view returns (bool) {\n        return (block.timestamp >= expiryDate);\n    }\n\n    function updateExpiry(uint256 timestamp) public onlyOwner {\n        require(timestamp > block.timestamp);\n        expiryDate = timestamp;\n    }\n}\n",
  "sourcePath": "/Users/shankarraomata/Documents/money_boss/smartcontracts/contracts/HRC721.sol",
  "compiler": {
    "name": "solc",
    "version": "0.8.11+commit.d7f03943.Emscripten.clang"
  },
  "schemaVersion": "3.4.4",
  "updatedAt": "2022-02-12T02:57:56.147Z",
  "devdoc": {
    "kind": "dev",
    "methods": {
      "approve(address,uint256)": {
        "details": "See {IERC721-approve}."
      },
      "balanceOf(address)": {
        "details": "See {IERC721-balanceOf}."
      },
      "getApproved(uint256)": {
        "details": "See {IERC721-getApproved}."
      },
      "isApprovedForAll(address,address)": {
        "details": "See {IERC721-isApprovedForAll}."
      },
      "name()": {
        "details": "See {IERC721Metadata-name}."
      },
      "ownerOf(uint256)": {
        "details": "See {IERC721-ownerOf}."
      },
      "safeTransferFrom(address,address,uint256)": {
        "details": "See {IERC721-safeTransferFrom}."
      },
      "safeTransferFrom(address,address,uint256,bytes)": {
        "details": "See {IERC721-safeTransferFrom}."
      },
      "setApprovalForAll(address,bool)": {
        "details": "See {IERC721-setApprovalForAll}."
      },
      "symbol()": {
        "details": "See {IERC721Metadata-symbol}."
      },
      "tokenByIndex(uint256)": {
        "details": "See {IERC721Enumerable-tokenByIndex}."
      },
      "tokenOfOwnerByIndex(address,uint256)": {
        "details": "See {IERC721Enumerable-tokenOfOwnerByIndex}."
      },
      "totalSupply()": {
        "details": "See {IERC721Enumerable-totalSupply}."
      },
      "transferFrom(address,address,uint256)": {
        "details": "See {IERC721-transferFrom}."
      }
    },
    "version": 1
  },
  "userdoc": {
    "kind": "user",
    "methods": {},
    "version": 1
  }
}