{
  "contractName": "HRC721",
  "abi": [
    {
      "inputs": [
        {
          "internalType": "address",
          "name": "_token",
          "type": "address"
        },
        {
          "internalType": "uint256",
          "name": "airdropExpiry",
          "type": "uint256"
        },
        {
          "internalType": "string",
          "name": "_baseURIPath",
          "type": "string"
        }
      ],
      "stateMutability": "nonpayable",
      "type": "constructor"
    },
    {
      "anonymous": false,
      "inputs": [
        {
          "indexed": true,
          "internalType": "address",
          "name": "_to",
          "type": "address"
        },
        {
          "indexed": false,
          "internalType": "uint256",
          "name": "_tokenId",
          "type": "uint256"
        }
      ],
      "name": "AirDrop",
      "type": "event"
    },
    {
      "anonymous": false,
      "inputs": [
        {
          "indexed": true,
          "internalType": "address",
          "name": "owner",
          "type": "address"
        },
        {
          "indexed": true,
          "internalType": "address",
          "name": "approved",
          "type": "address"
        },
        {
          "indexed": true,
          "internalType": "uint256",
          "name": "tokenId",
          "type": "uint256"
        }
      ],
      "name": "Approval",
      "type": "event"
    },
    {
      "anonymous": false,
      "inputs": [
        {
          "indexed": true,
          "internalType": "address",
          "name": "owner",
          "type": "address"
        },
        {
          "indexed": true,
          "internalType": "address",
          "name": "operator",
          "type": "address"
        },
        {
          "indexed": false,
          "internalType": "bool",
          "name": "approved",
          "type": "bool"
        }
      ],
      "name": "ApprovalForAll",
      "type": "event"
    },
    {
      "anonymous": false,
      "inputs": [
        {
          "indexed": true,
          "internalType": "address",
          "name": "_from",
          "type": "address"
        },
        {
          "indexed": true,
          "internalType": "address",
          "name": "_to",
          "type": "address"
        },
        {
          "indexed": false,
          "internalType": "uint256",
          "name": "_tokenId",
          "type": "uint256"
        }
      ],
      "name": "Mint",
      "type": "event"
    },
    {
      "anonymous": false,
      "inputs": [
        {
          "indexed": true,
          "internalType": "address",
          "name": "from",
          "type": "address"
        },
        {
          "indexed": true,
          "internalType": "address",
          "name": "to",
          "type": "address"
        },
        {
          "indexed": true,
          "internalType": "uint256",
          "name": "tokenId",
          "type": "uint256"
        }
      ],
      "name": "Transfer",
      "type": "event"
    },
    {
      "anonymous": false,
      "inputs": [
        {
          "indexed": true,
          "internalType": "address",
          "name": "_from",
          "type": "address"
        },
        {
          "indexed": true,
          "internalType": "address",
          "name": "_to",
          "type": "address"
        },
        {
          "indexed": false,
          "internalType": "uint256",
          "name": "_tokenId",
          "type": "uint256"
        }
      ],
      "name": "TransferBLU",
      "type": "event"
    },
    {
      "inputs": [
        {
          "internalType": "address",
          "name": "to",
          "type": "address"
        },
        {
          "internalType": "uint256",
          "name": "tokenId",
          "type": "uint256"
        }
      ],
      "name": "approve",
      "outputs": [],
      "stateMutability": "nonpayable",
      "type": "function"
    },
    {
      "inputs": [
        {
          "internalType": "address",
          "name": "owner",
          "type": "address"
        }
      ],
      "name": "balanceOf",
      "outputs": [
        {
          "internalType": "uint256",
          "name": "",
          "type": "uint256"
        }
      ],
      "stateMutability": "view",
      "type": "function"
    },
    {
      "inputs": [
        {
          "internalType": "uint256",
          "name": "tokenId",
          "type": "uint256"
        }
      ],
      "name": "getApproved",
      "outputs": [
        {
          "internalType": "address",
          "name": "",
          "type": "address"
        }
      ],
      "stateMutability": "view",
      "type": "function"
    },
    {
      "inputs": [
        {
          "internalType": "address",
          "name": "owner",
          "type": "address"
        },
        {
          "internalType": "address",
          "name": "operator",
          "type": "address"
        }
      ],
      "name": "isApprovedForAll",
      "outputs": [
        {
          "internalType": "bool",
          "name": "",
          "type": "bool"
        }
      ],
      "stateMutability": "view",
      "type": "function"
    },
    {
      "inputs": [],
      "name": "name",
      "outputs": [
        {
          "internalType": "string",
          "name": "",
          "type": "string"
        }
      ],
      "stateMutability": "view",
      "type": "function"
    },
    {
      "inputs": [
        {
          "internalType": "uint256",
          "name": "tokenId",
          "type": "uint256"
        }
      ],
      "name": "ownerOf",
      "outputs": [
        {
          "internalType": "address",
          "name": "",
          "type": "address"
        }
      ],
      "stateMutability": "view",
      "type": "function"
    },
    {
      "inputs": [
        {
          "internalType": "address",
          "name": "from",
          "type": "address"
        },
        {
          "internalType": "address",
          "name": "to",
          "type": "address"
        },
        {
          "internalType": "uint256",
          "name": "tokenId",
          "type": "uint256"
        }
      ],
      "name": "safeTransferFrom",
      "outputs": [],
      "stateMutability": "nonpayable",
      "type": "function"
    },
    {
      "inputs": [
        {
          "internalType": "address",
          "name": "from",
          "type": "address"
        },
        {
          "internalType": "address",
          "name": "to",
          "type": "address"
        },
        {
          "internalType": "uint256",
          "name": "tokenId",
          "type": "uint256"
        },
        {
          "internalType": "bytes",
          "name": "_data",
          "type": "bytes"
        }
      ],
      "name": "safeTransferFrom",
      "outputs": [],
      "stateMutability": "nonpayable",
      "type": "function"
    },
    {
      "inputs": [
        {
          "internalType": "address",
          "name": "operator",
          "type": "address"
        },
        {
          "internalType": "bool",
          "name": "approved",
          "type": "bool"
        }
      ],
      "name": "setApprovalForAll",
      "outputs": [],
      "stateMutability": "nonpayable",
      "type": "function"
    },
    {
      "inputs": [],
      "name": "symbol",
      "outputs": [
        {
          "internalType": "string",
          "name": "",
          "type": "string"
        }
      ],
      "stateMutability": "view",
      "type": "function"
    },
    {
      "inputs": [
        {
          "internalType": "uint256",
          "name": "index",
          "type": "uint256"
        }
      ],
      "name": "tokenByIndex",
      "outputs": [
        {
          "internalType": "uint256",
          "name": "",
          "type": "uint256"
        }
      ],
      "stateMutability": "view",
      "type": "function"
    },
    {
      "inputs": [
        {
          "internalType": "address",
          "name": "owner",
          "type": "address"
        },
        {
          "internalType": "uint256",
          "name": "index",
          "type": "uint256"
        }
      ],
      "name": "tokenOfOwnerByIndex",
      "outputs": [
        {
          "internalType": "uint256",
          "name": "",
          "type": "uint256"
        }
      ],
      "stateMutability": "view",
      "type": "function"
    },
    {
      "inputs": [],
      "name": "totalSupply",
      "outputs": [
        {
          "internalType": "uint256",
          "name": "",
          "type": "uint256"
        }
      ],
      "stateMutability": "view",
      "type": "function"
    },
    {
      "inputs": [
        {
          "internalType": "address",
          "name": "from",
          "type": "address"
        },
        {
          "internalType": "address",
          "name": "to",
          "type": "address"
        },
        {
          "internalType": "uint256",
          "name": "tokenId",
          "type": "uint256"
        }
      ],
      "name": "transferFrom",
      "outputs": [],
      "stateMutability": "nonpayable",
      "type": "function"
    },
    {
      "inputs": [
        {
          "internalType": "uint256",
          "name": "tokenId",
          "type": "uint256"
        }
      ],
      "name": "tokenURI",
      "outputs": [
        {
          "internalType": "string",
          "name": "",
          "type": "string"
        }
      ],
      "stateMutability": "view",
      "type": "function"
    },
    {
      "inputs": [
        {
          "internalType": "bytes4",
          "name": "interfaceId",
          "type": "bytes4"
        }
      ],
      "name": "supportsInterface",
      "outputs": [
        {
          "internalType": "bool",
          "name": "",
          "type": "bool"
        }
      ],
      "stateMutability": "view",
      "type": "function"
    },
    {
      "inputs": [
        {
          "internalType": "address",
          "name": "_user",
          "type": "address"
        },
        {
          "internalType": "uint256",
          "name": "tokenID",
          "type": "uint256"
        },
        {
          "internalType": "string",
          "name": "_tokenURI",
          "type": "string"
        }
      ],
      "name": "safemint",
      "outputs": [],
      "stateMutability": "nonpayable",
      "type": "function"
    },
    {
      "inputs": [
        {
          "internalType": "uint256",
          "name": "tokenID",
          "type": "uint256"
        }
      ],
      "name": "getToken",
      "outputs": [
        {
          "internalType": "int256",
          "name": "",
          "type": "int256"
        }
      ],
      "stateMutability": "view",
      "type": "function"
    },
    {
      "inputs": [
        {
          "internalType": "address",
          "name": "from",
          "type": "address"
        },
        {
          "internalType": "address",
          "name": "to",
          "type": "address"
        },
        {
          "internalType": "uint256",
          "name": "tokenID",
          "type": "uint256"
        }
      ],
      "name": "safeTransfer",
      "outputs": [],
      "stateMutability": "nonpayable",
      "type": "function"
    },
    {
      "inputs": [
        {
          "internalType": "string",
          "name": "_newBaseURI",
          "type": "string"
        }
      ],
      "name": "setBaseURI",
      "outputs": [],
      "stateMutability": "nonpayable",
      "type": "function"
    },
    {
      "inputs": [
        {
          "internalType": "uint256",
          "name": "timestamp",
          "type": "uint256"
        }
      ],
      "name": "updateExpiry",
      "outputs": [],
      "stateMutability": "nonpayable",
      "type": "function"
    }
  ],
  "bytecode": "0x60806040523480156200001157600080fd5b506040516200457238038062004572833981810160405281019062000037919062000598565b6040518060400160405280601681526020017f426c756520746f20466c7920436f6c6c656374696f6e000000000000000000008152506040518060400160405280600981526020017f424c5545544f464c5900000000000000000000000000000000000000000000008152508160009080519060200190620000bb929190620002ab565b508060019080519060200190620000d4929190620002ab565b50505033600d60006101000a81548173ffffffffffffffffffffffffffffffffffffffff021916908373ffffffffffffffffffffffffffffffffffffffff1602179055506000600190505b6104e2811162000177577fffffffffffffffffffffffffffffffffffffffffffffffffffffffffffffffff600b60008381526020019081526020016000208190555080806200016e9062000642565b9150506200011f565b506200018981620001da60201b60201c565b82601060006101000a81548173ffffffffffffffffffffffffffffffffffffffff021916908373ffffffffffffffffffffffffffffffffffffffff16021790555081600e8190555050505062000778565b600d60009054906101000a900473ffffffffffffffffffffffffffffffffffffffff1673ffffffffffffffffffffffffffffffffffffffff16600d60009054906101000a900473ffffffffffffffffffffffffffffffffffffffff1673ffffffffffffffffffffffffffffffffffffffff16146200028f576040517f08c379a00000000000000000000000000000000000000000000000000000000081526004016200028690620006f1565b60405180910390fd5b80600f9080519060200190620002a7929190620002ab565b5050565b828054620002b99062000742565b90600052602060002090601f016020900481019282620002dd576000855562000329565b82601f10620002f857805160ff191683800117855562000329565b8280016001018555821562000329579182015b82811115620003285782518255916020019190600101906200030b565b5b5090506200033891906200033c565b5090565b5b80821115620003575760008160009055506001016200033d565b5090565b6000604051905090565b600080fd5b600080fd5b600073ffffffffffffffffffffffffffffffffffffffff82169050919050565b60006200039c826200036f565b9050919050565b620003ae816200038f565b8114620003ba57600080fd5b50565b600081519050620003ce81620003a3565b92915050565b6000819050919050565b620003e981620003d4565b8114620003f557600080fd5b50565b6000815190506200040981620003de565b92915050565b600080fd5b600080fd5b6000601f19601f8301169050919050565b7f4e487b7100000000000000000000000000000000000000000000000000000000600052604160045260246000fd5b620004648262000419565b810181811067ffffffffffffffff821117156200048657620004856200042a565b5b80604052505050565b60006200049b6200035b565b9050620004a9828262000459565b919050565b600067ffffffffffffffff821115620004cc57620004cb6200042a565b5b620004d78262000419565b9050602081019050919050565b60005b8381101562000504578082015181840152602081019050620004e7565b8381111562000514576000848401525b50505050565b6000620005316200052b84620004ae565b6200048f565b90508281526020810184848401111562000550576200054f62000414565b5b6200055d848285620004e4565b509392505050565b600082601f8301126200057d576200057c6200040f565b5b81516200058f8482602086016200051a565b91505092915050565b600080600060608486031215620005b457620005b362000365565b5b6000620005c486828701620003bd565b9350506020620005d786828701620003f8565b925050604084015167ffffffffffffffff811115620005fb57620005fa6200036a565b5b620006098682870162000565565b9150509250925092565b7f4e487b7100000000000000000000000000000000000000000000000000000000600052601160045260246000fd5b60006200064f82620003d4565b91507fffffffffffffffffffffffffffffffffffffffffffffffffffffffffffffffff82141562000685576200068462000613565b5b600182019050919050565b600082825260208201905092915050565b7f43616c6c6572206973206e6f7420746865206f776e6572000000000000000000600082015250565b6000620006d960178362000690565b9150620006e682620006a1565b602082019050919050565b600060208201905081810360008301526200070c81620006ca565b9050919050565b7f4e487b7100000000000000000000000000000000000000000000000000000000600052602260045260246000fd5b600060028204905060018216806200075b57607f821691505b6020821081141562000772576200077162000713565b5b50919050565b613dea80620007886000396000f3fe608060405234801561001057600080fd5b50600436106101375760003560e01c806355f804b3116100b8578063b88d4fde1161007c578063b88d4fde1461035e578063c87b56dd1461037a578063d1660f99146103aa578063d359f82c146103c6578063e4b50cb8146103e2578063e985e9c51461041257610137565b806355f804b3146102a85780636352211e146102c457806370a08231146102f457806395d89b4114610324578063a22cb4651461034257610137565b806318160ddd116100ff57806318160ddd146101f257806323b872dd146102105780632f745c591461022c57806342842e0e1461025c5780634f6ccce71461027857610137565b806301ffc9a71461013c578063060d9ee41461016c57806306fdde0314610188578063081812fc146101a6578063095ea7b3146101d6575b600080fd5b6101566004803603810190610151919061273c565b610442565b6040516101639190612784565b60405180910390f35b61018660048036038101906101819190612979565b610454565b005b610190610584565b60405161019d9190612a70565b60405180910390f35b6101c060048036038101906101bb9190612a92565b610616565b6040516101cd9190612ace565b60405180910390f35b6101f060048036038101906101eb9190612ae9565b61069b565b005b6101fa6107b3565b6040516102079190612b38565b60405180910390f35b61022a60048036038101906102259190612b53565b6107c0565b005b61024660048036038101906102419190612ae9565b610820565b6040516102539190612b38565b60405180910390f35b61027660048036038101906102719190612b53565b6108c5565b005b610292600480360381019061028d9190612a92565b6108e5565b60405161029f9190612b38565b60405180910390f35b6102c260048036038101906102bd9190612ba6565b610956565b005b6102de60048036038101906102d99190612a92565b610a22565b6040516102eb9190612ace565b60405180910390f35b61030e60048036038101906103099190612bef565b610ad4565b60405161031b9190612b38565b60405180910390f35b61032c610b8c565b6040516103399190612a70565b60405180910390f35b61035c60048036038101906103579190612c48565b610c1e565b005b61037860048036038101906103739190612d29565b610c34565b005b610394600480360381019061038f9190612a92565b610c96565b6040516103a19190612a70565b60405180910390f35b6103c460048036038101906103bf9190612b53565b610ca8565b005b6103e060048036038101906103db9190612a92565b611014565b005b6103fc60048036038101906103f79190612a92565b6110dc565b6040516104099190612dc5565b60405180910390f35b61042c60048036038101906104279190612de0565b6110f9565b6040516104399190612784565b60405180910390f35b600061044d8261118d565b9050919050565b600d60009054906101000a900473ffffffffffffffffffffffffffffffffffffffff1673ffffffffffffffffffffffffffffffffffffffff16600d60009054906101000a900473ffffffffffffffffffffffffffffffffffffffff1673ffffffffffffffffffffffffffffffffffffffff1614610506576040517f08c379a00000000000000000000000000000000000000000000000000000000081526004016104fd90612e6c565b60405180910390fd5b6105108383611207565b61051a8282611225565b8273ffffffffffffffffffffffffffffffffffffffff163373ffffffffffffffffffffffffffffffffffffffff167fab8530f87dc9b59234c4623bf917212bb2536d647574c8e7e5da92c2ede0c9f8846040516105779190612b38565b60405180910390a3505050565b60606000805461059390612ebb565b80601f01602080910402602001604051908101604052809291908181526020018280546105bf90612ebb565b801561060c5780601f106105e15761010080835404028352916020019161060c565b820191906000526020600020905b8154815290600101906020018083116105ef57829003601f168201915b5050505050905090565b600061062182611299565b610660576040517f08c379a000000000000000000000000000000000000000000000000000000000815260040161065790612f5f565b60405180910390fd5b6004600083815260200190815260200160002060009054906101000a900473ffffffffffffffffffffffffffffffffffffffff169050919050565b60006106a682610a22565b90508073ffffffffffffffffffffffffffffffffffffffff168373ffffffffffffffffffffffffffffffffffffffff161415610717576040517f08c379a000000000000000000000000000000000000000000000000000000000815260040161070e90612ff1565b60405180910390fd5b8073ffffffffffffffffffffffffffffffffffffffff16610736611305565b73ffffffffffffffffffffffffffffffffffffffff16148061076557506107648161075f611305565b6110f9565b5b6107a4576040517f08c379a000000000000000000000000000000000000000000000000000000000815260040161079b90613083565b60405180910390fd5b6107ae838361130d565b505050565b6000600880549050905090565b6107d16107cb611305565b826113c6565b610810576040517f08c379a000000000000000000000000000000000000000000000000000000000815260040161080790613115565b60405180910390fd5b61081b8383836114a4565b505050565b600061082b83610ad4565b821061086c576040517f08c379a0000000000000000000000000000000000000000000000000000000008152600401610863906131a7565b60405180910390fd5b600660008473ffffffffffffffffffffffffffffffffffffffff1673ffffffffffffffffffffffffffffffffffffffff168152602001908152602001600020600083815260200190815260200160002054905092915050565b6108e083838360405180602001604052806000815250610c34565b505050565b60006108ef6107b3565b8210610930576040517f08c379a000000000000000000000000000000000000000000000000000000000815260040161092790613239565b60405180910390fd5b6008828154811061094457610943613259565b5b90600052602060002001549050919050565b600d60009054906101000a900473ffffffffffffffffffffffffffffffffffffffff1673ffffffffffffffffffffffffffffffffffffffff16600d60009054906101000a900473ffffffffffffffffffffffffffffffffffffffff1673ffffffffffffffffffffffffffffffffffffffff1614610a08576040517f08c379a00000000000000000000000000000000000000000000000000000000081526004016109ff90612e6c565b60405180910390fd5b80600f9080519060200190610a1e92919061262d565b5050565b6000806002600084815260200190815260200160002060009054906101000a900473ffffffffffffffffffffffffffffffffffffffff169050600073ffffffffffffffffffffffffffffffffffffffff168173ffffffffffffffffffffffffffffffffffffffff161415610acb576040517f08c379a0000000000000000000000000000000000000000000000000000000008152600401610ac2906132fa565b60405180910390fd5b80915050919050565b60008073ffffffffffffffffffffffffffffffffffffffff168273ffffffffffffffffffffffffffffffffffffffff161415610b45576040517f08c379a0000000000000000000000000000000000000000000000000000000008152600401610b3c9061338c565b60405180910390fd5b600360008373ffffffffffffffffffffffffffffffffffffffff1673ffffffffffffffffffffffffffffffffffffffff168152602001908152602001600020549050919050565b606060018054610b9b90612ebb565b80601f0160208091040260200160405190810160405280929190818152602001828054610bc790612ebb565b8015610c145780601f10610be957610100808354040283529160200191610c14565b820191906000526020600020905b815481529060010190602001808311610bf757829003601f168201915b5050505050905090565b610c30610c29611305565b838361170b565b5050565b610c45610c3f611305565b836113c6565b610c84576040517f08c379a0000000000000000000000000000000000000000000000000000000008152600401610c7b90613115565b60405180910390fd5b610c9084848484611878565b50505050565b6060610ca1826118d4565b9050919050565b610cb38383836108c5565b8173ffffffffffffffffffffffffffffffffffffffff168373ffffffffffffffffffffffffffffffffffffffff167fdd651628848cee35472a563c2112f04417e22c07fa297f3b1dfe190126b331de83604051610d109190612b38565b60405180910390a3600b60008281526020019081526020016000206000815480929190610d3c906133db565b91905055506000600b600083815260200190815260200160002054148015610d695750610d67611a26565b155b1561100f5760018110158015610d8157506103e88111155b15610e3457601060009054906101000a900473ffffffffffffffffffffffffffffffffffffffff1673ffffffffffffffffffffffffffffffffffffffff1663a9059cbb83678ac7230489e800006040518363ffffffff1660e01b8152600401610deb929190613469565b6020604051808303816000875af1158015610e0a573d6000803e3d6000fd5b505050506040513d601f19601f82011682018060405250810190610e2e91906134a7565b50610fc0565b6103e881118015610e4757506104b08111155b15610efb57601060009054906101000a900473ffffffffffffffffffffffffffffffffffffffff1673ffffffffffffffffffffffffffffffffffffffff1663a9059cbb836802b5e3af16b18800006040518363ffffffff1660e01b8152600401610eb292919061350f565b6020604051808303816000875af1158015610ed1573d6000803e3d6000fd5b505050506040513d601f19601f82011682018060405250810190610ef591906134a7565b50610fbf565b6104b081118015610f0e57506104e28111155b15610fbe57601060009054906101000a900473ffffffffffffffffffffffffffffffffffffffff1673ffffffffffffffffffffffffffffffffffffffff1663a9059cbb8368056bc75e2d631000006040518363ffffffff1660e01b8152600401610f79929190613573565b6020604051808303816000875af1158015610f98573d6000803e3d6000fd5b505050506040513d601f19601f82011682018060405250810190610fbc91906134a7565b505b5b5b8173ffffffffffffffffffffffffffffffffffffffff167f2a2f3a6f457f222229acc6b14376a5d3f4344fae935675150a096e2f1056bd98826040516110069190612b38565b60405180910390a25b505050565b600d60009054906101000a900473ffffffffffffffffffffffffffffffffffffffff1673ffffffffffffffffffffffffffffffffffffffff16600d60009054906101000a900473ffffffffffffffffffffffffffffffffffffffff1673ffffffffffffffffffffffffffffffffffffffff16146110c6576040517f08c379a00000000000000000000000000000000000000000000000000000000081526004016110bd90612e6c565b60405180910390fd5b4281116110d257600080fd5b80600e8190555050565b6000600b6000838152602001908152602001600020549050919050565b6000600560008473ffffffffffffffffffffffffffffffffffffffff1673ffffffffffffffffffffffffffffffffffffffff16815260200190815260200160002060008373ffffffffffffffffffffffffffffffffffffffff1673ffffffffffffffffffffffffffffffffffffffff16815260200190815260200160002060009054906101000a900460ff16905092915050565b60007f780e9d63000000000000000000000000000000000000000000000000000000007bffffffffffffffffffffffffffffffffffffffffffffffffffffffff1916827bffffffffffffffffffffffffffffffffffffffffffffffffffffffff1916148061120057506111ff82611a33565b5b9050919050565b611221828260405180602001604052806000815250611b15565b5050565b61122e82611299565b61126d576040517f08c379a00000000000000000000000000000000000000000000000000000000081526004016112649061360e565b60405180910390fd5b80600a6000848152602001908152602001600020908051906020019061129492919061262d565b505050565b60008073ffffffffffffffffffffffffffffffffffffffff166002600084815260200190815260200160002060009054906101000a900473ffffffffffffffffffffffffffffffffffffffff1673ffffffffffffffffffffffffffffffffffffffff1614159050919050565b600033905090565b816004600083815260200190815260200160002060006101000a81548173ffffffffffffffffffffffffffffffffffffffff021916908373ffffffffffffffffffffffffffffffffffffffff160217905550808273ffffffffffffffffffffffffffffffffffffffff1661138083610a22565b73ffffffffffffffffffffffffffffffffffffffff167f8c5be1e5ebec7d5bd14f71427d1e84f3dd0314c0f7b2291e5b200ac8c7c3b92560405160405180910390a45050565b60006113d182611299565b611410576040517f08c379a0000000000000000000000000000000000000000000000000000000008152600401611407906136a0565b60405180910390fd5b600061141b83610a22565b90508073ffffffffffffffffffffffffffffffffffffffff168473ffffffffffffffffffffffffffffffffffffffff16148061148a57508373ffffffffffffffffffffffffffffffffffffffff1661147284610616565b73ffffffffffffffffffffffffffffffffffffffff16145b8061149b575061149a81856110f9565b5b91505092915050565b8273ffffffffffffffffffffffffffffffffffffffff166114c482610a22565b73ffffffffffffffffffffffffffffffffffffffff161461151a576040517f08c379a000000000000000000000000000000000000000000000000000000000815260040161151190613732565b60405180910390fd5b600073ffffffffffffffffffffffffffffffffffffffff168273ffffffffffffffffffffffffffffffffffffffff16141561158a576040517f08c379a0000000000000000000000000000000000000000000000000000000008152600401611581906137c4565b60405180910390fd5b611595838383611b70565b6115a060008261130d565b6001600360008573ffffffffffffffffffffffffffffffffffffffff1673ffffffffffffffffffffffffffffffffffffffff16815260200190815260200160002060008282546115f091906137e4565b925050819055506001600360008473ffffffffffffffffffffffffffffffffffffffff1673ffffffffffffffffffffffffffffffffffffffff16815260200190815260200160002060008282546116479190613818565b92505081905550816002600083815260200190815260200160002060006101000a81548173ffffffffffffffffffffffffffffffffffffffff021916908373ffffffffffffffffffffffffffffffffffffffff160217905550808273ffffffffffffffffffffffffffffffffffffffff168473ffffffffffffffffffffffffffffffffffffffff167fddf252ad1be2c89b69c2b068fc378daa952ba7f163c4a11628f55a4df523b3ef60405160405180910390a4611706838383611b80565b505050565b8173ffffffffffffffffffffffffffffffffffffffff168373ffffffffffffffffffffffffffffffffffffffff16141561177a576040517f08c379a0000000000000000000000000000000000000000000000000000000008152600401611771906138ba565b60405180910390fd5b80600560008573ffffffffffffffffffffffffffffffffffffffff1673ffffffffffffffffffffffffffffffffffffffff16815260200190815260200160002060008473ffffffffffffffffffffffffffffffffffffffff1673ffffffffffffffffffffffffffffffffffffffff16815260200190815260200160002060006101000a81548160ff0219169083151502179055508173ffffffffffffffffffffffffffffffffffffffff168373ffffffffffffffffffffffffffffffffffffffff167f17307eab39ab6107e8899845ad3d59bd9653f200f220920489ca2b5937696c318360405161186b9190612784565b60405180910390a3505050565b6118838484846114a4565b61188f84848484611b85565b6118ce576040517f08c379a00000000000000000000000000000000000000000000000000000000081526004016118c59061394c565b60405180910390fd5b50505050565b60606118df82611299565b61191e576040517f08c379a0000000000000000000000000000000000000000000000000000000008152600401611915906139de565b60405180910390fd5b6000600a6000848152602001908152602001600020805461193e90612ebb565b80601f016020809104026020016040519081016040528092919081815260200182805461196a90612ebb565b80156119b75780601f1061198c576101008083540402835291602001916119b7565b820191906000526020600020905b81548152906001019060200180831161199a57829003601f168201915b5050505050905060006119c8611d0d565b90506000815114156119de578192505050611a21565b600082511115611a135780826040516020016119fb929190613a3a565b60405160208183030381529060405292505050611a21565b611a1c84611d9f565b925050505b919050565b6000600e54421015905090565b60007f80ac58cd000000000000000000000000000000000000000000000000000000007bffffffffffffffffffffffffffffffffffffffffffffffffffffffff1916827bffffffffffffffffffffffffffffffffffffffffffffffffffffffff19161480611afe57507f5b5e139f000000000000000000000000000000000000000000000000000000007bffffffffffffffffffffffffffffffffffffffffffffffffffffffff1916827bffffffffffffffffffffffffffffffffffffffffffffffffffffffff1916145b80611b0e5750611b0d82611e46565b5b9050919050565b611b1f8383611eb0565b611b2c6000848484611b85565b611b6b576040517f08c379a0000000000000000000000000000000000000000000000000000000008152600401611b629061394c565b60405180910390fd5b505050565b611b7b83838361208a565b505050565b505050565b6000611ba68473ffffffffffffffffffffffffffffffffffffffff1661219e565b15611d00578373ffffffffffffffffffffffffffffffffffffffff1663150b7a02611bcf611305565b8786866040518563ffffffff1660e01b8152600401611bf19493929190613ab3565b6020604051808303816000875af1925050508015611c2d57506040513d601f19601f82011682018060405250810190611c2a9190613b14565b60015b611cb0573d8060008114611c5d576040519150601f19603f3d011682016040523d82523d6000602084013e611c62565b606091505b50600081511415611ca8576040517f08c379a0000000000000000000000000000000000000000000000000000000008152600401611c9f9061394c565b60405180910390fd5b805181602001fd5b63150b7a0260e01b7bffffffffffffffffffffffffffffffffffffffffffffffffffffffff1916817bffffffffffffffffffffffffffffffffffffffffffffffffffffffff191614915050611d05565b600190505b949350505050565b6060600f8054611d1c90612ebb565b80601f0160208091040260200160405190810160405280929190818152602001828054611d4890612ebb565b8015611d955780601f10611d6a57610100808354040283529160200191611d95565b820191906000526020600020905b815481529060010190602001808311611d7857829003601f168201915b5050505050905090565b6060611daa82611299565b611de9576040517f08c379a0000000000000000000000000000000000000000000000000000000008152600401611de090613bb3565b60405180910390fd5b6000611df3611d0d565b90506000815111611e135760405180602001604052806000815250611e3e565b80611e1d846121c1565b604051602001611e2e929190613a3a565b6040516020818303038152906040525b915050919050565b60007f01ffc9a7000000000000000000000000000000000000000000000000000000007bffffffffffffffffffffffffffffffffffffffffffffffffffffffff1916827bffffffffffffffffffffffffffffffffffffffffffffffffffffffff1916149050919050565b600073ffffffffffffffffffffffffffffffffffffffff168273ffffffffffffffffffffffffffffffffffffffff161415611f20576040517f08c379a0000000000000000000000000000000000000000000000000000000008152600401611f1790613c1f565b60405180910390fd5b611f2981611299565b15611f69576040517f08c379a0000000000000000000000000000000000000000000000000000000008152600401611f6090613c8b565b60405180910390fd5b611f7560008383611b70565b6001600360008473ffffffffffffffffffffffffffffffffffffffff1673ffffffffffffffffffffffffffffffffffffffff1681526020019081526020016000206000828254611fc59190613818565b92505081905550816002600083815260200190815260200160002060006101000a81548173ffffffffffffffffffffffffffffffffffffffff021916908373ffffffffffffffffffffffffffffffffffffffff160217905550808273ffffffffffffffffffffffffffffffffffffffff16600073ffffffffffffffffffffffffffffffffffffffff167fddf252ad1be2c89b69c2b068fc378daa952ba7f163c4a11628f55a4df523b3ef60405160405180910390a461208660008383611b80565b5050565b612095838383612322565b600073ffffffffffffffffffffffffffffffffffffffff168373ffffffffffffffffffffffffffffffffffffffff1614156120d8576120d381612327565b612117565b8173ffffffffffffffffffffffffffffffffffffffff168373ffffffffffffffffffffffffffffffffffffffff1614612116576121158382612370565b5b5b600073ffffffffffffffffffffffffffffffffffffffff168273ffffffffffffffffffffffffffffffffffffffff16141561215a57612155816124dd565b612199565b8273ffffffffffffffffffffffffffffffffffffffff168273ffffffffffffffffffffffffffffffffffffffff16146121985761219782826125ae565b5b5b505050565b6000808273ffffffffffffffffffffffffffffffffffffffff163b119050919050565b60606000821415612209576040518060400160405280600181526020017f3000000000000000000000000000000000000000000000000000000000000000815250905061231d565b600082905060005b6000821461223b57808061222490613cab565b915050600a826122349190613d23565b9150612211565b60008167ffffffffffffffff8111156122575761225661284e565b5b6040519080825280601f01601f1916602001820160405280156122895781602001600182028036833780820191505090505b5090505b60008514612316576001826122a291906137e4565b9150600a856122b19190613d54565b60306122bd9190613818565b60f81b8183815181106122d3576122d2613259565b5b60200101907effffffffffffffffffffffffffffffffffffffffffffffffffffffffffffff1916908160001a905350600a8561230f9190613d23565b945061228d565b8093505050505b919050565b505050565b6008805490506009600083815260200190815260200160002081905550600881908060018154018082558091505060019003906000526020600020016000909190919091505550565b6000600161237d84610ad4565b61238791906137e4565b905060006007600084815260200190815260200160002054905081811461246c576000600660008673ffffffffffffffffffffffffffffffffffffffff1673ffffffffffffffffffffffffffffffffffffffff168152602001908152602001600020600084815260200190815260200160002054905080600660008773ffffffffffffffffffffffffffffffffffffffff1673ffffffffffffffffffffffffffffffffffffffff168152602001908152602001600020600084815260200190815260200160002081905550816007600083815260200190815260200160002081905550505b6007600084815260200190815260200160002060009055600660008573ffffffffffffffffffffffffffffffffffffffff1673ffffffffffffffffffffffffffffffffffffffff16815260200190815260200160002060008381526020019081526020016000206000905550505050565b600060016008805490506124f191906137e4565b905060006009600084815260200190815260200160002054905060006008838154811061252157612520613259565b5b90600052602060002001549050806008838154811061254357612542613259565b5b90600052602060002001819055508160096000838152602001908152602001600020819055506009600085815260200190815260200160002060009055600880548061259257612591613d85565b5b6001900381819060005260206000200160009055905550505050565b60006125b983610ad4565b905081600660008573ffffffffffffffffffffffffffffffffffffffff1673ffffffffffffffffffffffffffffffffffffffff168152602001908152602001600020600083815260200190815260200160002081905550806007600084815260200190815260200160002081905550505050565b82805461263990612ebb565b90600052602060002090601f01602090048101928261265b57600085556126a2565b82601f1061267457805160ff19168380011785556126a2565b828001600101855582156126a2579182015b828111156126a1578251825591602001919060010190612686565b5b5090506126af91906126b3565b5090565b5b808211156126cc5760008160009055506001016126b4565b5090565b6000604051905090565b600080fd5b600080fd5b60007fffffffff0000000000000000000000000000000000000000000000000000000082169050919050565b612719816126e4565b811461272457600080fd5b50565b60008135905061273681612710565b92915050565b600060208284031215612752576127516126da565b5b600061276084828501612727565b91505092915050565b60008115159050919050565b61277e81612769565b82525050565b60006020820190506127996000830184612775565b92915050565b600073ffffffffffffffffffffffffffffffffffffffff82169050919050565b60006127ca8261279f565b9050919050565b6127da816127bf565b81146127e557600080fd5b50565b6000813590506127f7816127d1565b92915050565b6000819050919050565b612810816127fd565b811461281b57600080fd5b50565b60008135905061282d81612807565b92915050565b600080fd5b600080fd5b6000601f19601f8301169050919050565b7f4e487b7100000000000000000000000000000000000000000000000000000000600052604160045260246000fd5b6128868261283d565b810181811067ffffffffffffffff821117156128a5576128a461284e565b5b80604052505050565b60006128b86126d0565b90506128c4828261287d565b919050565b600067ffffffffffffffff8211156128e4576128e361284e565b5b6128ed8261283d565b9050602081019050919050565b82818337600083830152505050565b600061291c612917846128c9565b6128ae565b90508281526020810184848401111561293857612937612838565b5b6129438482856128fa565b509392505050565b600082601f8301126129605761295f612833565b5b8135612970848260208601612909565b91505092915050565b600080600060608486031215612992576129916126da565b5b60006129a0868287016127e8565b93505060206129b18682870161281e565b925050604084013567ffffffffffffffff8111156129d2576129d16126df565b5b6129de8682870161294b565b9150509250925092565b600081519050919050565b600082825260208201905092915050565b60005b83811015612a22578082015181840152602081019050612a07565b83811115612a31576000848401525b50505050565b6000612a42826129e8565b612a4c81856129f3565b9350612a5c818560208601612a04565b612a658161283d565b840191505092915050565b60006020820190508181036000830152612a8a8184612a37565b905092915050565b600060208284031215612aa857612aa76126da565b5b6000612ab68482850161281e565b91505092915050565b612ac8816127bf565b82525050565b6000602082019050612ae36000830184612abf565b92915050565b60008060408385031215612b0057612aff6126da565b5b6000612b0e858286016127e8565b9250506020612b1f8582860161281e565b9150509250929050565b612b32816127fd565b82525050565b6000602082019050612b4d6000830184612b29565b92915050565b600080600060608486031215612b6c57612b6b6126da565b5b6000612b7a868287016127e8565b9350506020612b8b868287016127e8565b9250506040612b9c8682870161281e565b9150509250925092565b600060208284031215612bbc57612bbb6126da565b5b600082013567ffffffffffffffff811115612bda57612bd96126df565b5b612be68482850161294b565b91505092915050565b600060208284031215612c0557612c046126da565b5b6000612c13848285016127e8565b91505092915050565b612c2581612769565b8114612c3057600080fd5b50565b600081359050612c4281612c1c565b92915050565b60008060408385031215612c5f57612c5e6126da565b5b6000612c6d858286016127e8565b9250506020612c7e85828601612c33565b9150509250929050565b600067ffffffffffffffff821115612ca357612ca261284e565b5b612cac8261283d565b9050602081019050919050565b6000612ccc612cc784612c88565b6128ae565b905082815260208101848484011115612ce857612ce7612838565b5b612cf38482856128fa565b509392505050565b600082601f830112612d1057612d0f612833565b5b8135612d20848260208601612cb9565b91505092915050565b60008060008060808587031215612d4357612d426126da565b5b6000612d51878288016127e8565b9450506020612d62878288016127e8565b9350506040612d738782880161281e565b925050606085013567ffffffffffffffff811115612d9457612d936126df565b5b612da087828801612cfb565b91505092959194509250565b6000819050919050565b612dbf81612dac565b82525050565b6000602082019050612dda6000830184612db6565b92915050565b60008060408385031215612df757612df66126da565b5b6000612e05858286016127e8565b9250506020612e16858286016127e8565b9150509250929050565b7f43616c6c6572206973206e6f7420746865206f776e6572000000000000000000600082015250565b6000612e566017836129f3565b9150612e6182612e20565b602082019050919050565b60006020820190508181036000830152612e8581612e49565b9050919050565b7f4e487b7100000000000000000000000000000000000000000000000000000000600052602260045260246000fd5b60006002820490506001821680612ed357607f821691505b60208210811415612ee757612ee6612e8c565b5b50919050565b7f4552433732313a20617070726f76656420717565727920666f72206e6f6e657860008201527f697374656e7420746f6b656e0000000000000000000000000000000000000000602082015250565b6000612f49602c836129f3565b9150612f5482612eed565b604082019050919050565b60006020820190508181036000830152612f7881612f3c565b9050919050565b7f4552433732313a20617070726f76616c20746f2063757272656e74206f776e6560008201527f7200000000000000000000000000000000000000000000000000000000000000602082015250565b6000612fdb6021836129f3565b9150612fe682612f7f565b604082019050919050565b6000602082019050818103600083015261300a81612fce565b9050919050565b7f4552433732313a20617070726f76652063616c6c6572206973206e6f74206f7760008201527f6e6572206e6f7220617070726f76656420666f7220616c6c0000000000000000602082015250565b600061306d6038836129f3565b915061307882613011565b604082019050919050565b6000602082019050818103600083015261309c81613060565b9050919050565b7f4552433732313a207472616e736665722063616c6c6572206973206e6f74206f60008201527f776e6572206e6f7220617070726f766564000000000000000000000000000000602082015250565b60006130ff6031836129f3565b915061310a826130a3565b604082019050919050565b6000602082019050818103600083015261312e816130f2565b9050919050565b7f455243373231456e756d657261626c653a206f776e657220696e646578206f7560008201527f74206f6620626f756e6473000000000000000000000000000000000000000000602082015250565b6000613191602b836129f3565b915061319c82613135565b604082019050919050565b600060208201905081810360008301526131c081613184565b9050919050565b7f455243373231456e756d657261626c653a20676c6f62616c20696e646578206f60008201527f7574206f6620626f756e64730000000000000000000000000000000000000000602082015250565b6000613223602c836129f3565b915061322e826131c7565b604082019050919050565b6000602082019050818103600083015261325281613216565b9050919050565b7f4e487b7100000000000000000000000000000000000000000000000000000000600052603260045260246000fd5b7f4552433732313a206f776e657220717565727920666f72206e6f6e657869737460008201527f656e7420746f6b656e0000000000000000000000000000000000000000000000602082015250565b60006132e46029836129f3565b91506132ef82613288565b604082019050919050565b60006020820190508181036000830152613313816132d7565b9050919050565b7f4552433732313a2062616c616e636520717565727920666f7220746865207a6560008201527f726f206164647265737300000000000000000000000000000000000000000000602082015250565b6000613376602a836129f3565b91506133818261331a565b604082019050919050565b600060208201905081810360008301526133a581613369565b9050919050565b7f4e487b7100000000000000000000000000000000000000000000000000000000600052601160045260246000fd5b60006133e682612dac565b91507f7fffffffffffffffffffffffffffffffffffffffffffffffffffffffffffffff821415613419576134186133ac565b5b600182019050919050565b6000819050919050565b6000819050919050565b600061345361344e61344984613424565b61342e565b6127fd565b9050919050565b61346381613438565b82525050565b600060408201905061347e6000830185612abf565b61348b602083018461345a565b9392505050565b6000815190506134a181612c1c565b92915050565b6000602082840312156134bd576134bc6126da565b5b60006134cb84828501613492565b91505092915050565b6000819050919050565b60006134f96134f46134ef846134d4565b61342e565b6127fd565b9050919050565b613509816134de565b82525050565b60006040820190506135246000830185612abf565b6135316020830184613500565b9392505050565b6000819050919050565b600061355d61355861355384613538565b61342e565b6127fd565b9050919050565b61356d81613542565b82525050565b60006040820190506135886000830185612abf565b6135956020830184613564565b9392505050565b7f45524337323155524953746f726167653a2055524920736574206f66206e6f6e60008201527f6578697374656e7420746f6b656e000000000000000000000000000000000000602082015250565b60006135f8602e836129f3565b91506136038261359c565b604082019050919050565b60006020820190508181036000830152613627816135eb565b9050919050565b7f4552433732313a206f70657261746f7220717565727920666f72206e6f6e657860008201527f697374656e7420746f6b656e0000000000000000000000000000000000000000602082015250565b600061368a602c836129f3565b91506136958261362e565b604082019050919050565b600060208201905081810360008301526136b98161367d565b9050919050565b7f4552433732313a207472616e736665722066726f6d20696e636f72726563742060008201527f6f776e6572000000000000000000000000000000000000000000000000000000602082015250565b600061371c6025836129f3565b9150613727826136c0565b604082019050919050565b6000602082019050818103600083015261374b8161370f565b9050919050565b7f4552433732313a207472616e7366657220746f20746865207a65726f2061646460008201527f7265737300000000000000000000000000000000000000000000000000000000602082015250565b60006137ae6024836129f3565b91506137b982613752565b604082019050919050565b600060208201905081810360008301526137dd816137a1565b9050919050565b60006137ef826127fd565b91506137fa836127fd565b92508282101561380d5761380c6133ac565b5b828203905092915050565b6000613823826127fd565b915061382e836127fd565b9250827fffffffffffffffffffffffffffffffffffffffffffffffffffffffffffffffff03821115613863576138626133ac565b5b828201905092915050565b7f4552433732313a20617070726f766520746f2063616c6c657200000000000000600082015250565b60006138a46019836129f3565b91506138af8261386e565b602082019050919050565b600060208201905081810360008301526138d381613897565b9050919050565b7f4552433732313a207472616e7366657220746f206e6f6e20455243373231526560008201527f63656976657220696d706c656d656e7465720000000000000000000000000000602082015250565b60006139366032836129f3565b9150613941826138da565b604082019050919050565b6000602082019050818103600083015261396581613929565b9050919050565b7f45524337323155524953746f726167653a2055524920717565727920666f722060008201527f6e6f6e6578697374656e7420746f6b656e000000000000000000000000000000602082015250565b60006139c86031836129f3565b91506139d38261396c565b604082019050919050565b600060208201905081810360008301526139f7816139bb565b9050919050565b600081905092915050565b6000613a14826129e8565b613a1e81856139fe565b9350613a2e818560208601612a04565b80840191505092915050565b6000613a468285613a09565b9150613a528284613a09565b91508190509392505050565b600081519050919050565b600082825260208201905092915050565b6000613a8582613a5e565b613a8f8185613a69565b9350613a9f818560208601612a04565b613aa88161283d565b840191505092915050565b6000608082019050613ac86000830187612abf565b613ad56020830186612abf565b613ae26040830185612b29565b8181036060830152613af48184613a7a565b905095945050505050565b600081519050613b0e81612710565b92915050565b600060208284031215613b2a57613b296126da565b5b6000613b3884828501613aff565b91505092915050565b7f4552433732314d657461646174613a2055524920717565727920666f72206e6f60008201527f6e6578697374656e7420746f6b656e0000000000000000000000000000000000602082015250565b6000613b9d602f836129f3565b9150613ba882613b41565b604082019050919050565b60006020820190508181036000830152613bcc81613b90565b9050919050565b7f4552433732313a206d696e7420746f20746865207a65726f2061646472657373600082015250565b6000613c096020836129f3565b9150613c1482613bd3565b602082019050919050565b60006020820190508181036000830152613c3881613bfc565b9050919050565b7f4552433732313a20746f6b656e20616c7265616479206d696e74656400000000600082015250565b6000613c75601c836129f3565b9150613c8082613c3f565b602082019050919050565b60006020820190508181036000830152613ca481613c68565b9050919050565b6000613cb6826127fd565b91507fffffffffffffffffffffffffffffffffffffffffffffffffffffffffffffffff821415613ce957613ce86133ac565b5b600182019050919050565b7f4e487b7100000000000000000000000000000000000000000000000000000000600052601260045260246000fd5b6000613d2e826127fd565b9150613d39836127fd565b925082613d4957613d48613cf4565b5b828204905092915050565b6000613d5f826127fd565b9150613d6a836127fd565b925082613d7a57613d79613cf4565b5b828206905092915050565b7f4e487b7100000000000000000000000000000000000000000000000000000000600052603160045260246000fdfea2646970667358221220490beef12b272dfcbc1fb3e700c518ba935f94986a1bd693fa8724bc007af6f864736f6c634300080b0033",
  "immutableReferences": {},
  "source": "//SPDX-License-Identifier: UNLICENSED\npragma solidity ^0.8.10;\n\nimport \"@openzeppelin/contracts/access/Ownable.sol\";\nimport \"@openzeppelin/contracts/token/ERC721/ERC721.sol\";\nimport \"@openzeppelin/contracts/token/ERC20/IERC20.sol\";\nimport \"@openzeppelin/contracts/token/ERC721/extensions/ERC721Enumerable.sol\";\nimport \"@openzeppelin/contracts/token/ERC721/extensions/ERC721URIStorage.sol\";\n\n//HRC721 contract to deploy and mint NFT\ncontract HRC721 is ERC721(\"Blue to Fly Collection\", \"BLUETOFLY\"),ERC721Enumerable,ERC721URIStorage {\n    mapping(uint256 => int256) private tokenIdMappings;\n    address addressOwner;\n    address private owner;\n    uint256 expiryDate;\n    string baseURI;\n\n    //token that needed to be airdropped\n    IERC20 bluTokenAddress;\n\n    //event to be emmitted when the minting is succeeded\n    event Mint(address indexed _from, address indexed _to, uint256 _tokenId);\n\n    //emit when someone transfering/buying BLU NFT\n    event TransferBLU(\n        address indexed _from,\n        address indexed _to,\n        uint256 _tokenId\n    );\n\n    //emitting Airdrop event whenever the tokens are airdropped to an address\n    event AirDrop(address indexed _to, uint256 _tokenId);\n\n    modifier onlyOwner() {\n        require(owner == owner, \"Caller is not the owner\");\n        _;\n    }\n\n     function _beforeTokenTransfer(address from, address to, uint256 tokenId)\n        internal\n        override(ERC721, ERC721Enumerable)\n    {\n        super._beforeTokenTransfer(from, to, tokenId);\n    }\n\n    function _burn(uint256 tokenId) internal override (ERC721, ERC721URIStorage) {\n        super._burn(tokenId);\n    }\n\n    function tokenURI(uint256 tokenId)\n        public\n        view\n        override(ERC721, ERC721URIStorage)\n        returns (string memory)\n    {\n        return super.tokenURI(tokenId);\n    }\n\n   function _baseURI() internal view virtual override returns (string memory) {\n    return baseURI;\n  }\n\n    function supportsInterface(bytes4 interfaceId)\n        public\n        view\n        override(ERC721, ERC721Enumerable)\n        returns (bool)\n    {\n        return super.supportsInterface(interfaceId);\n    }\n\n    constructor(address _token, uint256 airdropExpiry, string memory _baseURIPath) {\n        owner = msg.sender;\n        for (uint256 i = 1; i <= 1250; i++) {\n            tokenIdMappings[i] = -1;\n        }\n        setBaseURI(_baseURIPath);\n        bluTokenAddress = IERC20(_token);\n        expiryDate = airdropExpiry;\n    }\n\n    //minting the NFT tokens by the owner of the contract\n    function safemint(\n        address _user,\n        uint256 tokenID,\n        string memory _tokenURI\n    ) public onlyOwner {\n        _safeMint(_user, tokenID);\n        _setTokenURI(tokenID,_tokenURI);\n        emit Mint(msg.sender, _user, tokenID);\n    }\n\n    function getToken(uint256 tokenID) public view returns (int256) {\n        return tokenIdMappings[tokenID];\n    }\n\n    /*\n    tranfering the NFT token from one user to another and \n    if an NFT is first time then the user will be airdropped with the social tokens\n    */\n    function safeTransfer(\n        address from,\n        address to,\n        uint256 tokenID\n    ) public {\n        safeTransferFrom(from, to, tokenID);\n        emit TransferBLU(from, to, tokenID);\n        tokenIdMappings[tokenID]++;\n        if (tokenIdMappings[tokenID] == 0 && !isExpired()) {\n            if (tokenID >= 1 && tokenID <= 1000)\n                bluTokenAddress.transfer(to, 10 * 10 ** 18);\n            else if (tokenID > 1000 && tokenID <= 1200)\n                bluTokenAddress.transfer(to, 50 * 10 ** 18);\n            else if (tokenID > 1200 && tokenID <= 1250)\n                bluTokenAddress.transfer(to, 100 * 10 ** 18);\n            emit AirDrop(to, tokenID);\n        }\n    }\n\nfunction setBaseURI(string memory _newBaseURI) public onlyOwner {\n    baseURI = _newBaseURI;\n  }\n\n    function isExpired() private view returns (bool) {\n        return (block.timestamp >= expiryDate);\n    }\n\n    function updateExpiry(uint256 timestamp) public onlyOwner {\n        require(timestamp > block.timestamp);\n        expiryDate = timestamp;\n    }\n}\n",
  "sourcePath": "/Users/shankarraomata/Documents/money_boss/smartcontracts/contracts/HRC721.sol",
  "compiler": {
    "name": "solc",
    "version": "0.8.11+commit.d7f03943.Emscripten.clang"
  },
  "schemaVersion": "3.4.4",
  "updatedAt": "2022-02-13T07:28:18.754Z",
  "devdoc": {
    "kind": "dev",
    "methods": {
      "approve(address,uint256)": {
        "details": "See {IERC721-approve}."
      },
      "balanceOf(address)": {
        "details": "See {IERC721-balanceOf}."
      },
      "getApproved(uint256)": {
        "details": "See {IERC721-getApproved}."
      },
      "isApprovedForAll(address,address)": {
        "details": "See {IERC721-isApprovedForAll}."
      },
      "name()": {
        "details": "See {IERC721Metadata-name}."
      },
      "ownerOf(uint256)": {
        "details": "See {IERC721-ownerOf}."
      },
      "safeTransferFrom(address,address,uint256)": {
        "details": "See {IERC721-safeTransferFrom}."
      },
      "safeTransferFrom(address,address,uint256,bytes)": {
        "details": "See {IERC721-safeTransferFrom}."
      },
      "setApprovalForAll(address,bool)": {
        "details": "See {IERC721-setApprovalForAll}."
      },
      "symbol()": {
        "details": "See {IERC721Metadata-symbol}."
      },
      "tokenByIndex(uint256)": {
        "details": "See {IERC721Enumerable-tokenByIndex}."
      },
      "tokenOfOwnerByIndex(address,uint256)": {
        "details": "See {IERC721Enumerable-tokenOfOwnerByIndex}."
      },
      "totalSupply()": {
        "details": "See {IERC721Enumerable-totalSupply}."
      },
      "transferFrom(address,address,uint256)": {
        "details": "See {IERC721-transferFrom}."
      }
    },
    "version": 1
  },
  "userdoc": {
    "kind": "user",
    "methods": {},
    "version": 1
  }
}