{
  "contractName": "HRC721",
  "abi": [
    {
      "inputs": [
        {
          "internalType": "address",
          "name": "_token",
          "type": "address"
        },
        {
          "internalType": "uint256",
          "name": "airdropExpiry",
          "type": "uint256"
        }
      ],
      "stateMutability": "nonpayable",
      "type": "constructor"
    },
    {
      "anonymous": false,
      "inputs": [
        {
          "indexed": true,
          "internalType": "address",
          "name": "_to",
          "type": "address"
        },
        {
          "indexed": false,
          "internalType": "uint256",
          "name": "_tokenId",
          "type": "uint256"
        }
      ],
      "name": "AirDrop",
      "type": "event"
    },
    {
      "anonymous": false,
      "inputs": [
        {
          "indexed": true,
          "internalType": "address",
          "name": "owner",
          "type": "address"
        },
        {
          "indexed": true,
          "internalType": "address",
          "name": "approved",
          "type": "address"
        },
        {
          "indexed": true,
          "internalType": "uint256",
          "name": "tokenId",
          "type": "uint256"
        }
      ],
      "name": "Approval",
      "type": "event"
    },
    {
      "anonymous": false,
      "inputs": [
        {
          "indexed": true,
          "internalType": "address",
          "name": "owner",
          "type": "address"
        },
        {
          "indexed": true,
          "internalType": "address",
          "name": "operator",
          "type": "address"
        },
        {
          "indexed": false,
          "internalType": "bool",
          "name": "approved",
          "type": "bool"
        }
      ],
      "name": "ApprovalForAll",
      "type": "event"
    },
    {
      "anonymous": false,
      "inputs": [
        {
          "indexed": true,
          "internalType": "address",
          "name": "_from",
          "type": "address"
        },
        {
          "indexed": true,
          "internalType": "address",
          "name": "_to",
          "type": "address"
        },
        {
          "indexed": false,
          "internalType": "uint256",
          "name": "_tokenId",
          "type": "uint256"
        }
      ],
      "name": "Mint",
      "type": "event"
    },
    {
      "anonymous": false,
      "inputs": [
        {
          "indexed": true,
          "internalType": "address",
          "name": "from",
          "type": "address"
        },
        {
          "indexed": true,
          "internalType": "address",
          "name": "to",
          "type": "address"
        },
        {
          "indexed": true,
          "internalType": "uint256",
          "name": "tokenId",
          "type": "uint256"
        }
      ],
      "name": "Transfer",
      "type": "event"
    },
    {
      "anonymous": false,
      "inputs": [
        {
          "indexed": true,
          "internalType": "address",
          "name": "_from",
          "type": "address"
        },
        {
          "indexed": true,
          "internalType": "address",
          "name": "_to",
          "type": "address"
        },
        {
          "indexed": false,
          "internalType": "uint256",
          "name": "_tokenId",
          "type": "uint256"
        }
      ],
      "name": "TransferBLU",
      "type": "event"
    },
    {
      "inputs": [
        {
          "internalType": "address",
          "name": "to",
          "type": "address"
        },
        {
          "internalType": "uint256",
          "name": "tokenId",
          "type": "uint256"
        }
      ],
      "name": "approve",
      "outputs": [],
      "stateMutability": "nonpayable",
      "type": "function"
    },
    {
      "inputs": [
        {
          "internalType": "address",
          "name": "owner",
          "type": "address"
        }
      ],
      "name": "balanceOf",
      "outputs": [
        {
          "internalType": "uint256",
          "name": "",
          "type": "uint256"
        }
      ],
      "stateMutability": "view",
      "type": "function"
    },
    {
      "inputs": [
        {
          "internalType": "uint256",
          "name": "tokenId",
          "type": "uint256"
        }
      ],
      "name": "getApproved",
      "outputs": [
        {
          "internalType": "address",
          "name": "",
          "type": "address"
        }
      ],
      "stateMutability": "view",
      "type": "function"
    },
    {
      "inputs": [
        {
          "internalType": "address",
          "name": "owner",
          "type": "address"
        },
        {
          "internalType": "address",
          "name": "operator",
          "type": "address"
        }
      ],
      "name": "isApprovedForAll",
      "outputs": [
        {
          "internalType": "bool",
          "name": "",
          "type": "bool"
        }
      ],
      "stateMutability": "view",
      "type": "function"
    },
    {
      "inputs": [
        {
          "internalType": "uint256",
          "name": "",
          "type": "uint256"
        }
      ],
      "name": "metadataMappings",
      "outputs": [
        {
          "internalType": "uint256",
          "name": "tokenID",
          "type": "uint256"
        },
        {
          "internalType": "string",
          "name": "tokenURI",
          "type": "string"
        },
        {
          "internalType": "uint256",
          "name": "timestamp",
          "type": "uint256"
        }
      ],
      "stateMutability": "view",
      "type": "function"
    },
    {
      "inputs": [],
      "name": "name",
      "outputs": [
        {
          "internalType": "string",
          "name": "",
          "type": "string"
        }
      ],
      "stateMutability": "view",
      "type": "function"
    },
    {
      "inputs": [
        {
          "internalType": "uint256",
          "name": "tokenId",
          "type": "uint256"
        }
      ],
      "name": "ownerOf",
      "outputs": [
        {
          "internalType": "address",
          "name": "",
          "type": "address"
        }
      ],
      "stateMutability": "view",
      "type": "function"
    },
    {
      "inputs": [
        {
          "internalType": "address",
          "name": "from",
          "type": "address"
        },
        {
          "internalType": "address",
          "name": "to",
          "type": "address"
        },
        {
          "internalType": "uint256",
          "name": "tokenId",
          "type": "uint256"
        }
      ],
      "name": "safeTransferFrom",
      "outputs": [],
      "stateMutability": "nonpayable",
      "type": "function"
    },
    {
      "inputs": [
        {
          "internalType": "address",
          "name": "from",
          "type": "address"
        },
        {
          "internalType": "address",
          "name": "to",
          "type": "address"
        },
        {
          "internalType": "uint256",
          "name": "tokenId",
          "type": "uint256"
        },
        {
          "internalType": "bytes",
          "name": "_data",
          "type": "bytes"
        }
      ],
      "name": "safeTransferFrom",
      "outputs": [],
      "stateMutability": "nonpayable",
      "type": "function"
    },
    {
      "inputs": [
        {
          "internalType": "address",
          "name": "operator",
          "type": "address"
        },
        {
          "internalType": "bool",
          "name": "approved",
          "type": "bool"
        }
      ],
      "name": "setApprovalForAll",
      "outputs": [],
      "stateMutability": "nonpayable",
      "type": "function"
    },
    {
      "inputs": [
        {
          "internalType": "bytes4",
          "name": "interfaceId",
          "type": "bytes4"
        }
      ],
      "name": "supportsInterface",
      "outputs": [
        {
          "internalType": "bool",
          "name": "",
          "type": "bool"
        }
      ],
      "stateMutability": "view",
      "type": "function"
    },
    {
      "inputs": [],
      "name": "symbol",
      "outputs": [
        {
          "internalType": "string",
          "name": "",
          "type": "string"
        }
      ],
      "stateMutability": "view",
      "type": "function"
    },
    {
      "inputs": [
        {
          "internalType": "uint256",
          "name": "tokenId",
          "type": "uint256"
        }
      ],
      "name": "tokenURI",
      "outputs": [
        {
          "internalType": "string",
          "name": "",
          "type": "string"
        }
      ],
      "stateMutability": "view",
      "type": "function"
    },
    {
      "inputs": [
        {
          "internalType": "address",
          "name": "from",
          "type": "address"
        },
        {
          "internalType": "address",
          "name": "to",
          "type": "address"
        },
        {
          "internalType": "uint256",
          "name": "tokenId",
          "type": "uint256"
        }
      ],
      "name": "transferFrom",
      "outputs": [],
      "stateMutability": "nonpayable",
      "type": "function"
    },
    {
      "inputs": [
        {
          "internalType": "address",
          "name": "_user",
          "type": "address"
        },
        {
          "internalType": "uint256",
          "name": "tokenID",
          "type": "uint256"
        },
        {
          "internalType": "string",
          "name": "tokenURI",
          "type": "string"
        }
      ],
      "name": "safemint",
      "outputs": [],
      "stateMutability": "nonpayable",
      "type": "function"
    },
    {
      "inputs": [
        {
          "internalType": "uint256",
          "name": "tokenID",
          "type": "uint256"
        }
      ],
      "name": "getToken",
      "outputs": [
        {
          "internalType": "int256",
          "name": "",
          "type": "int256"
        }
      ],
      "stateMutability": "view",
      "type": "function"
    },
    {
      "inputs": [
        {
          "internalType": "address",
          "name": "from",
          "type": "address"
        },
        {
          "internalType": "address",
          "name": "to",
          "type": "address"
        },
        {
          "internalType": "uint256",
          "name": "tokenID",
          "type": "uint256"
        }
      ],
      "name": "safeTransfer",
      "outputs": [],
      "stateMutability": "nonpayable",
      "type": "function"
    },
    {
      "inputs": [
        {
          "internalType": "uint256",
          "name": "timestamp",
          "type": "uint256"
        }
      ],
      "name": "updateExpiry",
      "outputs": [],
      "stateMutability": "nonpayable",
      "type": "function"
    }
  ],
  "bytecode": "0x60806040523480156200001157600080fd5b50604051620036ec380380620036ec83398181016040528101906200003791906200031d565b6040518060400160405280600781526020017f426c753344414f000000000000000000000000000000000000000000000000008152506040518060400160405280600481526020017f426c7533000000000000000000000000000000000000000000000000000000008152508160009080519060200190620000bb929190620001c8565b508060019080519060200190620000d4929190620001c8565b5050506000600190505b6104e2811162000136577fffffffffffffffffffffffffffffffffffffffffffffffffffffffffffffffff600660008381526020019081526020016000208190555080806200012d9062000393565b915050620000de565b5081600a60006101000a81548173ffffffffffffffffffffffffffffffffffffffff021916908373ffffffffffffffffffffffffffffffffffffffff16021790555033600860006101000a81548173ffffffffffffffffffffffffffffffffffffffff021916908373ffffffffffffffffffffffffffffffffffffffff16021790555080600981905550505062000446565b828054620001d69062000410565b90600052602060002090601f016020900481019282620001fa576000855562000246565b82601f106200021557805160ff191683800117855562000246565b8280016001018555821562000246579182015b828111156200024557825182559160200191906001019062000228565b5b50905062000255919062000259565b5090565b5b80821115620002745760008160009055506001016200025a565b5090565b600080fd5b600073ffffffffffffffffffffffffffffffffffffffff82169050919050565b6000620002aa826200027d565b9050919050565b620002bc816200029d565b8114620002c857600080fd5b50565b600081519050620002dc81620002b1565b92915050565b6000819050919050565b620002f781620002e2565b81146200030357600080fd5b50565b6000815190506200031781620002ec565b92915050565b6000806040838503121562000337576200033662000278565b5b60006200034785828601620002cb565b92505060206200035a8582860162000306565b9150509250929050565b7f4e487b7100000000000000000000000000000000000000000000000000000000600052601160045260246000fd5b6000620003a082620002e2565b91507fffffffffffffffffffffffffffffffffffffffffffffffffffffffffffffffff821415620003d657620003d562000364565b5b600182019050919050565b7f4e487b7100000000000000000000000000000000000000000000000000000000600052602260045260246000fd5b600060028204905060018216806200042957607f821691505b6020821081141562000440576200043f620003e1565b5b50919050565b61329680620004566000396000f3fe608060405234801561001057600080fd5b50600436106101165760003560e01c80637ea3cc5a116100a2578063c87b56dd11610071578063c87b56dd146102f1578063d1660f9914610321578063d359f82c1461033d578063e4b50cb814610359578063e985e9c51461038957610116565b80637ea3cc5a1461026957806395d89b411461029b578063a22cb465146102b9578063b88d4fde146102d557610116565b8063095ea7b3116100e9578063095ea7b3146101b557806323b872dd146101d157806342842e0e146101ed5780636352211e1461020957806370a082311461023957610116565b806301ffc9a71461011b578063060d9ee41461014b57806306fdde0314610167578063081812fc14610185575b600080fd5b61013560048036038101906101309190611e6a565b6103b9565b6040516101429190611eb2565b60405180910390f35b610165600480360381019061016091906120a7565b61049b565b005b61016f610601565b60405161017c919061219e565b60405180910390f35b61019f600480360381019061019a91906121c0565b610693565b6040516101ac91906121fc565b60405180910390f35b6101cf60048036038101906101ca9190612217565b610718565b005b6101eb60048036038101906101e69190612257565b610830565b005b61020760048036038101906102029190612257565b610890565b005b610223600480360381019061021e91906121c0565b6108b0565b60405161023091906121fc565b60405180910390f35b610253600480360381019061024e91906122aa565b610962565b60405161026091906122e6565b60405180910390f35b610283600480360381019061027e91906121c0565b610a1a565b60405161029293929190612301565b60405180910390f35b6102a3610acc565b6040516102b0919061219e565b60405180910390f35b6102d360048036038101906102ce919061236b565b610b5e565b005b6102ef60048036038101906102ea919061244c565b610b74565b005b61030b600480360381019061030691906121c0565b610bd6565b604051610318919061219e565b60405180910390f35b61033b60048036038101906103369190612257565b610c7d565b005b610357600480360381019061035291906121c0565b610fd2565b005b610373600480360381019061036e91906121c0565b611078565b60405161038091906124e8565b60405180910390f35b6103a3600480360381019061039e9190612503565b611095565b6040516103b09190611eb2565b60405180910390f35b60007f80ac58cd000000000000000000000000000000000000000000000000000000007bffffffffffffffffffffffffffffffffffffffffffffffffffffffff1916827bffffffffffffffffffffffffffffffffffffffffffffffffffffffff1916148061048457507f5b5e139f000000000000000000000000000000000000000000000000000000007bffffffffffffffffffffffffffffffffffffffffffffffffffffffff1916827bffffffffffffffffffffffffffffffffffffffffffffffffffffffff1916145b80610494575061049382611129565b5b9050919050565b600860009054906101000a900473ffffffffffffffffffffffffffffffffffffffff1673ffffffffffffffffffffffffffffffffffffffff163373ffffffffffffffffffffffffffffffffffffffff161461052b576040517f08c379a00000000000000000000000000000000000000000000000000000000081526004016105229061258f565b60405180910390fd5b6105358383611193565b604051806060016040528083815260200182815260200142815250600b6000848152602001908152602001600020600082015181600001556020820151816001019080519060200190610589929190611d5b565b50604082015181600201559050508273ffffffffffffffffffffffffffffffffffffffff163373ffffffffffffffffffffffffffffffffffffffff167fab8530f87dc9b59234c4623bf917212bb2536d647574c8e7e5da92c2ede0c9f8846040516105f491906122e6565b60405180910390a3505050565b606060008054610610906125de565b80601f016020809104026020016040519081016040528092919081815260200182805461063c906125de565b80156106895780601f1061065e57610100808354040283529160200191610689565b820191906000526020600020905b81548152906001019060200180831161066c57829003601f168201915b5050505050905090565b600061069e826111b1565b6106dd576040517f08c379a00000000000000000000000000000000000000000000000000000000081526004016106d490612682565b60405180910390fd5b6004600083815260200190815260200160002060009054906101000a900473ffffffffffffffffffffffffffffffffffffffff169050919050565b6000610723826108b0565b90508073ffffffffffffffffffffffffffffffffffffffff168373ffffffffffffffffffffffffffffffffffffffff161415610794576040517f08c379a000000000000000000000000000000000000000000000000000000000815260040161078b90612714565b60405180910390fd5b8073ffffffffffffffffffffffffffffffffffffffff166107b361121d565b73ffffffffffffffffffffffffffffffffffffffff1614806107e257506107e1816107dc61121d565b611095565b5b610821576040517f08c379a0000000000000000000000000000000000000000000000000000000008152600401610818906127a6565b60405180910390fd5b61082b8383611225565b505050565b61084161083b61121d565b826112de565b610880576040517f08c379a000000000000000000000000000000000000000000000000000000000815260040161087790612838565b60405180910390fd5b61088b8383836113bc565b505050565b6108ab83838360405180602001604052806000815250610b74565b505050565b6000806002600084815260200190815260200160002060009054906101000a900473ffffffffffffffffffffffffffffffffffffffff169050600073ffffffffffffffffffffffffffffffffffffffff168173ffffffffffffffffffffffffffffffffffffffff161415610959576040517f08c379a0000000000000000000000000000000000000000000000000000000008152600401610950906128ca565b60405180910390fd5b80915050919050565b60008073ffffffffffffffffffffffffffffffffffffffff168273ffffffffffffffffffffffffffffffffffffffff1614156109d3576040517f08c379a00000000000000000000000000000000000000000000000000000000081526004016109ca9061295c565b60405180910390fd5b600360008373ffffffffffffffffffffffffffffffffffffffff1673ffffffffffffffffffffffffffffffffffffffff168152602001908152602001600020549050919050565b600b602052806000526040600020600091509050806000015490806001018054610a43906125de565b80601f0160208091040260200160405190810160405280929190818152602001828054610a6f906125de565b8015610abc5780601f10610a9157610100808354040283529160200191610abc565b820191906000526020600020905b815481529060010190602001808311610a9f57829003601f168201915b5050505050908060020154905083565b606060018054610adb906125de565b80601f0160208091040260200160405190810160405280929190818152602001828054610b07906125de565b8015610b545780601f10610b2957610100808354040283529160200191610b54565b820191906000526020600020905b815481529060010190602001808311610b3757829003601f168201915b5050505050905090565b610b70610b6961121d565b8383611623565b5050565b610b85610b7f61121d565b836112de565b610bc4576040517f08c379a0000000000000000000000000000000000000000000000000000000008152600401610bbb90612838565b60405180910390fd5b610bd084848484611790565b50505050565b6060610be1826111b1565b610c20576040517f08c379a0000000000000000000000000000000000000000000000000000000008152600401610c17906129ee565b60405180910390fd5b6000610c2a6117ec565b90506000815111610c4a5760405180602001604052806000815250610c75565b80610c5484611803565b604051602001610c65929190612a4a565b6040516020818303038152906040525b915050919050565b610c88838383610890565b8173ffffffffffffffffffffffffffffffffffffffff168373ffffffffffffffffffffffffffffffffffffffff167fdd651628848cee35472a563c2112f04417e22c07fa297f3b1dfe190126b331de83604051610ce591906122e6565b60405180910390a3600660008281526020019081526020016000206000815480929190610d1190612a9d565b919050555060006006600083815260200190815260200160002054148015610d3e5750610d3c611964565b155b15610fcd5760018110158015610d5657506103e88111155b15610e0257600a60009054906101000a900473ffffffffffffffffffffffffffffffffffffffff1673ffffffffffffffffffffffffffffffffffffffff1663a9059cbb83600a6040518363ffffffff1660e01b8152600401610db9929190612b2b565b6020604051808303816000875af1158015610dd8573d6000803e3d6000fd5b505050506040513d601f19601f82011682018060405250810190610dfc9190612b69565b50610f7e565b6103e881118015610e1557506104b08111155b15610ec157600a60009054906101000a900473ffffffffffffffffffffffffffffffffffffffff1673ffffffffffffffffffffffffffffffffffffffff1663a9059cbb8360326040518363ffffffff1660e01b8152600401610e78929190612bd1565b6020604051808303816000875af1158015610e97573d6000803e3d6000fd5b505050506040513d601f19601f82011682018060405250810190610ebb9190612b69565b50610f7d565b6104b081118015610ed457506104e28111155b15610f7c57600a60009054906101000a900473ffffffffffffffffffffffffffffffffffffffff1673ffffffffffffffffffffffffffffffffffffffff1663a9059cbb8360646040518363ffffffff1660e01b8152600401610f37929190612c35565b6020604051808303816000875af1158015610f56573d6000803e3d6000fd5b505050506040513d601f19601f82011682018060405250810190610f7a9190612b69565b505b5b5b8173ffffffffffffffffffffffffffffffffffffffff167f2a2f3a6f457f222229acc6b14376a5d3f4344fae935675150a096e2f1056bd9882604051610fc491906122e6565b60405180910390a25b505050565b600860009054906101000a900473ffffffffffffffffffffffffffffffffffffffff1673ffffffffffffffffffffffffffffffffffffffff163373ffffffffffffffffffffffffffffffffffffffff1614611062576040517f08c379a00000000000000000000000000000000000000000000000000000000081526004016110599061258f565b60405180910390fd5b42811161106e57600080fd5b8060098190555050565b600060066000838152602001908152602001600020549050919050565b6000600560008473ffffffffffffffffffffffffffffffffffffffff1673ffffffffffffffffffffffffffffffffffffffff16815260200190815260200160002060008373ffffffffffffffffffffffffffffffffffffffff1673ffffffffffffffffffffffffffffffffffffffff16815260200190815260200160002060009054906101000a900460ff16905092915050565b60007f01ffc9a7000000000000000000000000000000000000000000000000000000007bffffffffffffffffffffffffffffffffffffffffffffffffffffffff1916827bffffffffffffffffffffffffffffffffffffffffffffffffffffffff1916149050919050565b6111ad828260405180602001604052806000815250611971565b5050565b60008073ffffffffffffffffffffffffffffffffffffffff166002600084815260200190815260200160002060009054906101000a900473ffffffffffffffffffffffffffffffffffffffff1673ffffffffffffffffffffffffffffffffffffffff1614159050919050565b600033905090565b816004600083815260200190815260200160002060006101000a81548173ffffffffffffffffffffffffffffffffffffffff021916908373ffffffffffffffffffffffffffffffffffffffff160217905550808273ffffffffffffffffffffffffffffffffffffffff16611298836108b0565b73ffffffffffffffffffffffffffffffffffffffff167f8c5be1e5ebec7d5bd14f71427d1e84f3dd0314c0f7b2291e5b200ac8c7c3b92560405160405180910390a45050565b60006112e9826111b1565b611328576040517f08c379a000000000000000000000000000000000000000000000000000000000815260040161131f90612cd0565b60405180910390fd5b6000611333836108b0565b90508073ffffffffffffffffffffffffffffffffffffffff168473ffffffffffffffffffffffffffffffffffffffff1614806113a257508373ffffffffffffffffffffffffffffffffffffffff1661138a84610693565b73ffffffffffffffffffffffffffffffffffffffff16145b806113b357506113b28185611095565b5b91505092915050565b8273ffffffffffffffffffffffffffffffffffffffff166113dc826108b0565b73ffffffffffffffffffffffffffffffffffffffff1614611432576040517f08c379a000000000000000000000000000000000000000000000000000000000815260040161142990612d62565b60405180910390fd5b600073ffffffffffffffffffffffffffffffffffffffff168273ffffffffffffffffffffffffffffffffffffffff1614156114a2576040517f08c379a000000000000000000000000000000000000000000000000000000000815260040161149990612df4565b60405180910390fd5b6114ad8383836119cc565b6114b8600082611225565b6001600360008573ffffffffffffffffffffffffffffffffffffffff1673ffffffffffffffffffffffffffffffffffffffff16815260200190815260200160002060008282546115089190612e14565b925050819055506001600360008473ffffffffffffffffffffffffffffffffffffffff1673ffffffffffffffffffffffffffffffffffffffff168152602001908152602001600020600082825461155f9190612e48565b92505081905550816002600083815260200190815260200160002060006101000a81548173ffffffffffffffffffffffffffffffffffffffff021916908373ffffffffffffffffffffffffffffffffffffffff160217905550808273ffffffffffffffffffffffffffffffffffffffff168473ffffffffffffffffffffffffffffffffffffffff167fddf252ad1be2c89b69c2b068fc378daa952ba7f163c4a11628f55a4df523b3ef60405160405180910390a461161e8383836119d1565b505050565b8173ffffffffffffffffffffffffffffffffffffffff168373ffffffffffffffffffffffffffffffffffffffff161415611692576040517f08c379a000000000000000000000000000000000000000000000000000000000815260040161168990612eea565b60405180910390fd5b80600560008573ffffffffffffffffffffffffffffffffffffffff1673ffffffffffffffffffffffffffffffffffffffff16815260200190815260200160002060008473ffffffffffffffffffffffffffffffffffffffff1673ffffffffffffffffffffffffffffffffffffffff16815260200190815260200160002060006101000a81548160ff0219169083151502179055508173ffffffffffffffffffffffffffffffffffffffff168373ffffffffffffffffffffffffffffffffffffffff167f17307eab39ab6107e8899845ad3d59bd9653f200f220920489ca2b5937696c31836040516117839190611eb2565b60405180910390a3505050565b61179b8484846113bc565b6117a7848484846119d6565b6117e6576040517f08c379a00000000000000000000000000000000000000000000000000000000081526004016117dd90612f7c565b60405180910390fd5b50505050565b606060405180602001604052806000815250905090565b6060600082141561184b576040518060400160405280600181526020017f3000000000000000000000000000000000000000000000000000000000000000815250905061195f565b600082905060005b6000821461187d57808061186690612f9c565b915050600a826118769190613014565b9150611853565b60008167ffffffffffffffff81111561189957611898611f7c565b5b6040519080825280601f01601f1916602001820160405280156118cb5781602001600182028036833780820191505090505b5090505b60008514611958576001826118e49190612e14565b9150600a856118f39190613045565b60306118ff9190612e48565b60f81b81838151811061191557611914613076565b5b60200101907effffffffffffffffffffffffffffffffffffffffffffffffffffffffffffff1916908160001a905350600a856119519190613014565b94506118cf565b8093505050505b919050565b6000600954421015905090565b61197b8383611b5e565b61198860008484846119d6565b6119c7576040517f08c379a00000000000000000000000000000000000000000000000000000000081526004016119be90612f7c565b60405180910390fd5b505050565b505050565b505050565b60006119f78473ffffffffffffffffffffffffffffffffffffffff16611d38565b15611b51578373ffffffffffffffffffffffffffffffffffffffff1663150b7a02611a2061121d565b8786866040518563ffffffff1660e01b8152600401611a4294939291906130fa565b6020604051808303816000875af1925050508015611a7e57506040513d601f19601f82011682018060405250810190611a7b919061315b565b60015b611b01573d8060008114611aae576040519150601f19603f3d011682016040523d82523d6000602084013e611ab3565b606091505b50600081511415611af9576040517f08c379a0000000000000000000000000000000000000000000000000000000008152600401611af090612f7c565b60405180910390fd5b805181602001fd5b63150b7a0260e01b7bffffffffffffffffffffffffffffffffffffffffffffffffffffffff1916817bffffffffffffffffffffffffffffffffffffffffffffffffffffffff191614915050611b56565b600190505b949350505050565b600073ffffffffffffffffffffffffffffffffffffffff168273ffffffffffffffffffffffffffffffffffffffff161415611bce576040517f08c379a0000000000000000000000000000000000000000000000000000000008152600401611bc5906131d4565b60405180910390fd5b611bd7816111b1565b15611c17576040517f08c379a0000000000000000000000000000000000000000000000000000000008152600401611c0e90613240565b60405180910390fd5b611c23600083836119cc565b6001600360008473ffffffffffffffffffffffffffffffffffffffff1673ffffffffffffffffffffffffffffffffffffffff1681526020019081526020016000206000828254611c739190612e48565b92505081905550816002600083815260200190815260200160002060006101000a81548173ffffffffffffffffffffffffffffffffffffffff021916908373ffffffffffffffffffffffffffffffffffffffff160217905550808273ffffffffffffffffffffffffffffffffffffffff16600073ffffffffffffffffffffffffffffffffffffffff167fddf252ad1be2c89b69c2b068fc378daa952ba7f163c4a11628f55a4df523b3ef60405160405180910390a4611d34600083836119d1565b5050565b6000808273ffffffffffffffffffffffffffffffffffffffff163b119050919050565b828054611d67906125de565b90600052602060002090601f016020900481019282611d895760008555611dd0565b82601f10611da257805160ff1916838001178555611dd0565b82800160010185558215611dd0579182015b82811115611dcf578251825591602001919060010190611db4565b5b509050611ddd9190611de1565b5090565b5b80821115611dfa576000816000905550600101611de2565b5090565b6000604051905090565b600080fd5b600080fd5b60007fffffffff0000000000000000000000000000000000000000000000000000000082169050919050565b611e4781611e12565b8114611e5257600080fd5b50565b600081359050611e6481611e3e565b92915050565b600060208284031215611e8057611e7f611e08565b5b6000611e8e84828501611e55565b91505092915050565b60008115159050919050565b611eac81611e97565b82525050565b6000602082019050611ec76000830184611ea3565b92915050565b600073ffffffffffffffffffffffffffffffffffffffff82169050919050565b6000611ef882611ecd565b9050919050565b611f0881611eed565b8114611f1357600080fd5b50565b600081359050611f2581611eff565b92915050565b6000819050919050565b611f3e81611f2b565b8114611f4957600080fd5b50565b600081359050611f5b81611f35565b92915050565b600080fd5b600080fd5b6000601f19601f8301169050919050565b7f4e487b7100000000000000000000000000000000000000000000000000000000600052604160045260246000fd5b611fb482611f6b565b810181811067ffffffffffffffff82111715611fd357611fd2611f7c565b5b80604052505050565b6000611fe6611dfe565b9050611ff28282611fab565b919050565b600067ffffffffffffffff82111561201257612011611f7c565b5b61201b82611f6b565b9050602081019050919050565b82818337600083830152505050565b600061204a61204584611ff7565b611fdc565b90508281526020810184848401111561206657612065611f66565b5b612071848285612028565b509392505050565b600082601f83011261208e5761208d611f61565b5b813561209e848260208601612037565b91505092915050565b6000806000606084860312156120c0576120bf611e08565b5b60006120ce86828701611f16565b93505060206120df86828701611f4c565b925050604084013567ffffffffffffffff811115612100576120ff611e0d565b5b61210c86828701612079565b9150509250925092565b600081519050919050565b600082825260208201905092915050565b60005b83811015612150578082015181840152602081019050612135565b8381111561215f576000848401525b50505050565b600061217082612116565b61217a8185612121565b935061218a818560208601612132565b61219381611f6b565b840191505092915050565b600060208201905081810360008301526121b88184612165565b905092915050565b6000602082840312156121d6576121d5611e08565b5b60006121e484828501611f4c565b91505092915050565b6121f681611eed565b82525050565b600060208201905061221160008301846121ed565b92915050565b6000806040838503121561222e5761222d611e08565b5b600061223c85828601611f16565b925050602061224d85828601611f4c565b9150509250929050565b6000806000606084860312156122705761226f611e08565b5b600061227e86828701611f16565b935050602061228f86828701611f16565b92505060406122a086828701611f4c565b9150509250925092565b6000602082840312156122c0576122bf611e08565b5b60006122ce84828501611f16565b91505092915050565b6122e081611f2b565b82525050565b60006020820190506122fb60008301846122d7565b92915050565b600060608201905061231660008301866122d7565b81810360208301526123288185612165565b905061233760408301846122d7565b949350505050565b61234881611e97565b811461235357600080fd5b50565b6000813590506123658161233f565b92915050565b6000806040838503121561238257612381611e08565b5b600061239085828601611f16565b92505060206123a185828601612356565b9150509250929050565b600067ffffffffffffffff8211156123c6576123c5611f7c565b5b6123cf82611f6b565b9050602081019050919050565b60006123ef6123ea846123ab565b611fdc565b90508281526020810184848401111561240b5761240a611f66565b5b612416848285612028565b509392505050565b600082601f83011261243357612432611f61565b5b81356124438482602086016123dc565b91505092915050565b6000806000806080858703121561246657612465611e08565b5b600061247487828801611f16565b945050602061248587828801611f16565b935050604061249687828801611f4c565b925050606085013567ffffffffffffffff8111156124b7576124b6611e0d565b5b6124c38782880161241e565b91505092959194509250565b6000819050919050565b6124e2816124cf565b82525050565b60006020820190506124fd60008301846124d9565b92915050565b6000806040838503121561251a57612519611e08565b5b600061252885828601611f16565b925050602061253985828601611f16565b9150509250929050565b7f43616c6c6572206973206e6f7420746865206f776e6572000000000000000000600082015250565b6000612579601783612121565b915061258482612543565b602082019050919050565b600060208201905081810360008301526125a88161256c565b9050919050565b7f4e487b7100000000000000000000000000000000000000000000000000000000600052602260045260246000fd5b600060028204905060018216806125f657607f821691505b6020821081141561260a576126096125af565b5b50919050565b7f4552433732313a20617070726f76656420717565727920666f72206e6f6e657860008201527f697374656e7420746f6b656e0000000000000000000000000000000000000000602082015250565b600061266c602c83612121565b915061267782612610565b604082019050919050565b6000602082019050818103600083015261269b8161265f565b9050919050565b7f4552433732313a20617070726f76616c20746f2063757272656e74206f776e6560008201527f7200000000000000000000000000000000000000000000000000000000000000602082015250565b60006126fe602183612121565b9150612709826126a2565b604082019050919050565b6000602082019050818103600083015261272d816126f1565b9050919050565b7f4552433732313a20617070726f76652063616c6c6572206973206e6f74206f7760008201527f6e6572206e6f7220617070726f76656420666f7220616c6c0000000000000000602082015250565b6000612790603883612121565b915061279b82612734565b604082019050919050565b600060208201905081810360008301526127bf81612783565b9050919050565b7f4552433732313a207472616e736665722063616c6c6572206973206e6f74206f60008201527f776e6572206e6f7220617070726f766564000000000000000000000000000000602082015250565b6000612822603183612121565b915061282d826127c6565b604082019050919050565b6000602082019050818103600083015261285181612815565b9050919050565b7f4552433732313a206f776e657220717565727920666f72206e6f6e657869737460008201527f656e7420746f6b656e0000000000000000000000000000000000000000000000602082015250565b60006128b4602983612121565b91506128bf82612858565b604082019050919050565b600060208201905081810360008301526128e3816128a7565b9050919050565b7f4552433732313a2062616c616e636520717565727920666f7220746865207a6560008201527f726f206164647265737300000000000000000000000000000000000000000000602082015250565b6000612946602a83612121565b9150612951826128ea565b604082019050919050565b6000602082019050818103600083015261297581612939565b9050919050565b7f4552433732314d657461646174613a2055524920717565727920666f72206e6f60008201527f6e6578697374656e7420746f6b656e0000000000000000000000000000000000602082015250565b60006129d8602f83612121565b91506129e38261297c565b604082019050919050565b60006020820190508181036000830152612a07816129cb565b9050919050565b600081905092915050565b6000612a2482612116565b612a2e8185612a0e565b9350612a3e818560208601612132565b80840191505092915050565b6000612a568285612a19565b9150612a628284612a19565b91508190509392505050565b7f4e487b7100000000000000000000000000000000000000000000000000000000600052601160045260246000fd5b6000612aa8826124cf565b91507f7fffffffffffffffffffffffffffffffffffffffffffffffffffffffffffffff821415612adb57612ada612a6e565b5b600182019050919050565b6000819050919050565b6000819050919050565b6000612b15612b10612b0b84612ae6565b612af0565b611f2b565b9050919050565b612b2581612afa565b82525050565b6000604082019050612b4060008301856121ed565b612b4d6020830184612b1c565b9392505050565b600081519050612b638161233f565b92915050565b600060208284031215612b7f57612b7e611e08565b5b6000612b8d84828501612b54565b91505092915050565b6000819050919050565b6000612bbb612bb6612bb184612b96565b612af0565b611f2b565b9050919050565b612bcb81612ba0565b82525050565b6000604082019050612be660008301856121ed565b612bf36020830184612bc2565b9392505050565b6000819050919050565b6000612c1f612c1a612c1584612bfa565b612af0565b611f2b565b9050919050565b612c2f81612c04565b82525050565b6000604082019050612c4a60008301856121ed565b612c576020830184612c26565b9392505050565b7f4552433732313a206f70657261746f7220717565727920666f72206e6f6e657860008201527f697374656e7420746f6b656e0000000000000000000000000000000000000000602082015250565b6000612cba602c83612121565b9150612cc582612c5e565b604082019050919050565b60006020820190508181036000830152612ce981612cad565b9050919050565b7f4552433732313a207472616e736665722066726f6d20696e636f72726563742060008201527f6f776e6572000000000000000000000000000000000000000000000000000000602082015250565b6000612d4c602583612121565b9150612d5782612cf0565b604082019050919050565b60006020820190508181036000830152612d7b81612d3f565b9050919050565b7f4552433732313a207472616e7366657220746f20746865207a65726f2061646460008201527f7265737300000000000000000000000000000000000000000000000000000000602082015250565b6000612dde602483612121565b9150612de982612d82565b604082019050919050565b60006020820190508181036000830152612e0d81612dd1565b9050919050565b6000612e1f82611f2b565b9150612e2a83611f2b565b925082821015612e3d57612e3c612a6e565b5b828203905092915050565b6000612e5382611f2b565b9150612e5e83611f2b565b9250827fffffffffffffffffffffffffffffffffffffffffffffffffffffffffffffffff03821115612e9357612e92612a6e565b5b828201905092915050565b7f4552433732313a20617070726f766520746f2063616c6c657200000000000000600082015250565b6000612ed4601983612121565b9150612edf82612e9e565b602082019050919050565b60006020820190508181036000830152612f0381612ec7565b9050919050565b7f4552433732313a207472616e7366657220746f206e6f6e20455243373231526560008201527f63656976657220696d706c656d656e7465720000000000000000000000000000602082015250565b6000612f66603283612121565b9150612f7182612f0a565b604082019050919050565b60006020820190508181036000830152612f9581612f59565b9050919050565b6000612fa782611f2b565b91507fffffffffffffffffffffffffffffffffffffffffffffffffffffffffffffffff821415612fda57612fd9612a6e565b5b600182019050919050565b7f4e487b7100000000000000000000000000000000000000000000000000000000600052601260045260246000fd5b600061301f82611f2b565b915061302a83611f2b565b92508261303a57613039612fe5565b5b828204905092915050565b600061305082611f2b565b915061305b83611f2b565b92508261306b5761306a612fe5565b5b828206905092915050565b7f4e487b7100000000000000000000000000000000000000000000000000000000600052603260045260246000fd5b600081519050919050565b600082825260208201905092915050565b60006130cc826130a5565b6130d681856130b0565b93506130e6818560208601612132565b6130ef81611f6b565b840191505092915050565b600060808201905061310f60008301876121ed565b61311c60208301866121ed565b61312960408301856122d7565b818103606083015261313b81846130c1565b905095945050505050565b60008151905061315581611e3e565b92915050565b60006020828403121561317157613170611e08565b5b600061317f84828501613146565b91505092915050565b7f4552433732313a206d696e7420746f20746865207a65726f2061646472657373600082015250565b60006131be602083612121565b91506131c982613188565b602082019050919050565b600060208201905081810360008301526131ed816131b1565b9050919050565b7f4552433732313a20746f6b656e20616c7265616479206d696e74656400000000600082015250565b600061322a601c83612121565b9150613235826131f4565b602082019050919050565b600060208201905081810360008301526132598161321d565b905091905056fea2646970667358221220984abb95e8f44b0f10043028db82af2d3619ab06f399bee1183113f514da0ed264736f6c634300080b0033",
  "immutableReferences": {},
  "source": "//SPDX-License-Identifier: UNLICENSED\npragma solidity ^0.8.10;\n\nimport \"@openzeppelin/contracts/access/Ownable.sol\";\nimport \"@openzeppelin/contracts/token/ERC721/ERC721.sol\";\nimport \"@openzeppelin/contracts/token/ERC20/IERC20.sol\";\n\n//HRC721 contract to deploy and mint NFT\ncontract HRC721 is ERC721(\"Blu3DAO\", \"Blu3\") {\n    mapping(uint256 => int256) private tokenIdMappings;\n    address addressOwner;\n    address private owner;\n    uint256 expiryDate;\n\n    //token that needed to be airdropped\n    IERC20 bluTokenAddress;\n\n    //event to be emmitted when the minting is succeeded\n    event Mint(address indexed _from, address indexed _to, uint256 _tokenId);\n\n    //emit when someone transfering/buying BLU NFT\n    event TransferBLU(\n        address indexed _from,\n        address indexed _to,\n        uint256 _tokenId\n    );\n\n    //emitting Airdrop event whenever the tokens are airdropped to an address \n    event AirDrop(address indexed _to, uint256 _tokenId);\n\n\n    struct Metadata {\n        uint256 tokenID;\n        string tokenURI;\n        uint256 timestamp;\n    }\n\n\n    modifier onlyOwner() {\n        require(msg.sender == owner, \"Caller is not the owner\");\n        _;\n    }\n\n    mapping(uint256 => Metadata) public metadataMappings;\n\n    constructor(address _token, uint256 airdropExpiry) {\n        for (uint256 i = 1; i <= 1250; i++) {\n            tokenIdMappings[i] = -1;\n        }\n        bluTokenAddress = IERC20(_token);\n        owner = msg.sender;\n        expiryDate = airdropExpiry;\n    }\n\n    function safemint(\n        address _user,\n        uint256 tokenID,\n        string memory tokenURI\n    ) public onlyOwner {\n        _safeMint(_user, tokenID);\n        metadataMappings[tokenID] = Metadata({\n            timestamp: block.timestamp,\n            tokenID: tokenID,\n            tokenURI: tokenURI\n        });\n        emit Mint(msg.sender, _user, tokenID);\n    }\n\n    function getToken(uint256 tokenID) public view returns (int256) {\n        return tokenIdMappings[tokenID];\n    }\n\n    function safeTransfer(\n        address from,\n        address to,\n        uint256 tokenID\n    ) public {\n        safeTransferFrom(from, to, tokenID);\n        emit TransferBLU(from, to, tokenID);\n        tokenIdMappings[tokenID]++;\n        if (tokenIdMappings[tokenID] == 0 && !isExpired()) {\n            if (tokenID >= 1 && tokenID <= 1000)\n                bluTokenAddress.transfer(to, 10);\n            else if (tokenID > 1000 && tokenID <= 1200)\n                bluTokenAddress.transfer(to, 50);\n            else if (tokenID > 1200 && tokenID <= 1250)\n                bluTokenAddress.transfer(to, 100);\n            emit AirDrop(to, tokenID);\n        }\n    }\n\n    function isExpired() private view returns (bool) {\n        return (block.timestamp >= expiryDate);\n    }\n\n    function updateExpiry(uint256 timestamp) public onlyOwner {\n        require(timestamp > block.timestamp);\n        expiryDate = timestamp;\n    }\n}\n",
  "sourcePath": "/Users/shankarraomata/Documents/money_boss/smartcontracts/contracts/HRC721.sol",
  "compiler": {
    "name": "solc",
    "version": "0.8.11+commit.d7f03943.Emscripten.clang"
  },
  "schemaVersion": "3.4.4",
  "updatedAt": "2022-02-11T06:19:54.598Z",
  "devdoc": {
    "kind": "dev",
    "methods": {
      "approve(address,uint256)": {
        "details": "See {IERC721-approve}."
      },
      "balanceOf(address)": {
        "details": "See {IERC721-balanceOf}."
      },
      "getApproved(uint256)": {
        "details": "See {IERC721-getApproved}."
      },
      "isApprovedForAll(address,address)": {
        "details": "See {IERC721-isApprovedForAll}."
      },
      "name()": {
        "details": "See {IERC721Metadata-name}."
      },
      "ownerOf(uint256)": {
        "details": "See {IERC721-ownerOf}."
      },
      "safeTransferFrom(address,address,uint256)": {
        "details": "See {IERC721-safeTransferFrom}."
      },
      "safeTransferFrom(address,address,uint256,bytes)": {
        "details": "See {IERC721-safeTransferFrom}."
      },
      "setApprovalForAll(address,bool)": {
        "details": "See {IERC721-setApprovalForAll}."
      },
      "supportsInterface(bytes4)": {
        "details": "See {IERC165-supportsInterface}."
      },
      "symbol()": {
        "details": "See {IERC721Metadata-symbol}."
      },
      "tokenURI(uint256)": {
        "details": "See {IERC721Metadata-tokenURI}."
      },
      "transferFrom(address,address,uint256)": {
        "details": "See {IERC721-transferFrom}."
      }
    },
    "version": 1
  },
  "userdoc": {
    "kind": "user",
    "methods": {},
    "version": 1
  }
}