{
  "contractName": "HRC721",
  "abi": [
    {
      "inputs": [
        {
          "internalType": "contract ERC20",
          "name": "_token",
          "type": "address"
        },
        {
          "internalType": "uint256",
          "name": "airdropExpiry",
          "type": "uint256"
        }
      ],
      "stateMutability": "nonpayable",
      "type": "constructor"
    },
    {
      "anonymous": false,
      "inputs": [
        {
          "indexed": true,
          "internalType": "address",
          "name": "owner",
          "type": "address"
        },
        {
          "indexed": true,
          "internalType": "address",
          "name": "approved",
          "type": "address"
        },
        {
          "indexed": true,
          "internalType": "uint256",
          "name": "tokenId",
          "type": "uint256"
        }
      ],
      "name": "Approval",
      "type": "event"
    },
    {
      "anonymous": false,
      "inputs": [
        {
          "indexed": true,
          "internalType": "address",
          "name": "owner",
          "type": "address"
        },
        {
          "indexed": true,
          "internalType": "address",
          "name": "operator",
          "type": "address"
        },
        {
          "indexed": false,
          "internalType": "bool",
          "name": "approved",
          "type": "bool"
        }
      ],
      "name": "ApprovalForAll",
      "type": "event"
    },
    {
      "anonymous": false,
      "inputs": [
        {
          "indexed": true,
          "internalType": "address",
          "name": "from",
          "type": "address"
        },
        {
          "indexed": true,
          "internalType": "address",
          "name": "to",
          "type": "address"
        },
        {
          "indexed": true,
          "internalType": "uint256",
          "name": "tokenId",
          "type": "uint256"
        }
      ],
      "name": "Transfer",
      "type": "event"
    },
    {
      "inputs": [
        {
          "internalType": "address",
          "name": "to",
          "type": "address"
        },
        {
          "internalType": "uint256",
          "name": "tokenId",
          "type": "uint256"
        }
      ],
      "name": "approve",
      "outputs": [],
      "stateMutability": "nonpayable",
      "type": "function"
    },
    {
      "inputs": [
        {
          "internalType": "address",
          "name": "owner",
          "type": "address"
        }
      ],
      "name": "balanceOf",
      "outputs": [
        {
          "internalType": "uint256",
          "name": "",
          "type": "uint256"
        }
      ],
      "stateMutability": "view",
      "type": "function"
    },
    {
      "inputs": [
        {
          "internalType": "uint256",
          "name": "tokenId",
          "type": "uint256"
        }
      ],
      "name": "getApproved",
      "outputs": [
        {
          "internalType": "address",
          "name": "",
          "type": "address"
        }
      ],
      "stateMutability": "view",
      "type": "function"
    },
    {
      "inputs": [
        {
          "internalType": "address",
          "name": "owner",
          "type": "address"
        },
        {
          "internalType": "address",
          "name": "operator",
          "type": "address"
        }
      ],
      "name": "isApprovedForAll",
      "outputs": [
        {
          "internalType": "bool",
          "name": "",
          "type": "bool"
        }
      ],
      "stateMutability": "view",
      "type": "function"
    },
    {
      "inputs": [
        {
          "internalType": "uint256",
          "name": "",
          "type": "uint256"
        }
      ],
      "name": "metadataMappings",
      "outputs": [
        {
          "internalType": "uint256",
          "name": "tokenID",
          "type": "uint256"
        },
        {
          "internalType": "string",
          "name": "tokenURI",
          "type": "string"
        },
        {
          "internalType": "uint256",
          "name": "timestamp",
          "type": "uint256"
        }
      ],
      "stateMutability": "view",
      "type": "function"
    },
    {
      "inputs": [],
      "name": "name",
      "outputs": [
        {
          "internalType": "string",
          "name": "",
          "type": "string"
        }
      ],
      "stateMutability": "view",
      "type": "function"
    },
    {
      "inputs": [
        {
          "internalType": "uint256",
          "name": "tokenId",
          "type": "uint256"
        }
      ],
      "name": "ownerOf",
      "outputs": [
        {
          "internalType": "address",
          "name": "",
          "type": "address"
        }
      ],
      "stateMutability": "view",
      "type": "function"
    },
    {
      "inputs": [
        {
          "internalType": "address",
          "name": "from",
          "type": "address"
        },
        {
          "internalType": "address",
          "name": "to",
          "type": "address"
        },
        {
          "internalType": "uint256",
          "name": "tokenId",
          "type": "uint256"
        }
      ],
      "name": "safeTransferFrom",
      "outputs": [],
      "stateMutability": "nonpayable",
      "type": "function"
    },
    {
      "inputs": [
        {
          "internalType": "address",
          "name": "from",
          "type": "address"
        },
        {
          "internalType": "address",
          "name": "to",
          "type": "address"
        },
        {
          "internalType": "uint256",
          "name": "tokenId",
          "type": "uint256"
        },
        {
          "internalType": "bytes",
          "name": "_data",
          "type": "bytes"
        }
      ],
      "name": "safeTransferFrom",
      "outputs": [],
      "stateMutability": "nonpayable",
      "type": "function"
    },
    {
      "inputs": [
        {
          "internalType": "address",
          "name": "operator",
          "type": "address"
        },
        {
          "internalType": "bool",
          "name": "approved",
          "type": "bool"
        }
      ],
      "name": "setApprovalForAll",
      "outputs": [],
      "stateMutability": "nonpayable",
      "type": "function"
    },
    {
      "inputs": [
        {
          "internalType": "bytes4",
          "name": "interfaceId",
          "type": "bytes4"
        }
      ],
      "name": "supportsInterface",
      "outputs": [
        {
          "internalType": "bool",
          "name": "",
          "type": "bool"
        }
      ],
      "stateMutability": "view",
      "type": "function"
    },
    {
      "inputs": [],
      "name": "symbol",
      "outputs": [
        {
          "internalType": "string",
          "name": "",
          "type": "string"
        }
      ],
      "stateMutability": "view",
      "type": "function"
    },
    {
      "inputs": [
        {
          "internalType": "uint256",
          "name": "tokenId",
          "type": "uint256"
        }
      ],
      "name": "tokenURI",
      "outputs": [
        {
          "internalType": "string",
          "name": "",
          "type": "string"
        }
      ],
      "stateMutability": "view",
      "type": "function"
    },
    {
      "inputs": [
        {
          "internalType": "address",
          "name": "from",
          "type": "address"
        },
        {
          "internalType": "address",
          "name": "to",
          "type": "address"
        },
        {
          "internalType": "uint256",
          "name": "tokenId",
          "type": "uint256"
        }
      ],
      "name": "transferFrom",
      "outputs": [],
      "stateMutability": "nonpayable",
      "type": "function"
    },
    {
      "inputs": [
        {
          "internalType": "address",
          "name": "user",
          "type": "address"
        },
        {
          "internalType": "uint256",
          "name": "tokenID",
          "type": "uint256"
        },
        {
          "internalType": "string",
          "name": "tokenURI",
          "type": "string"
        }
      ],
      "name": "safemint",
      "outputs": [],
      "stateMutability": "nonpayable",
      "type": "function"
    },
    {
      "inputs": [
        {
          "internalType": "uint256",
          "name": "tokenID",
          "type": "uint256"
        }
      ],
      "name": "getToken",
      "outputs": [
        {
          "internalType": "int256",
          "name": "",
          "type": "int256"
        }
      ],
      "stateMutability": "view",
      "type": "function"
    },
    {
      "inputs": [
        {
          "internalType": "address",
          "name": "from",
          "type": "address"
        },
        {
          "internalType": "address",
          "name": "to",
          "type": "address"
        },
        {
          "internalType": "uint256",
          "name": "tokenID",
          "type": "uint256"
        }
      ],
      "name": "safeTransfer",
      "outputs": [],
      "stateMutability": "nonpayable",
      "type": "function"
    }
  ],
  "bytecode": "0x60806040523480156200001157600080fd5b506040516200347938038062003479833981810160405281019062000037919062000331565b6040518060400160405280600781526020017f426c753344414f000000000000000000000000000000000000000000000000008152506040518060400160405280600481526020017f426c7533000000000000000000000000000000000000000000000000000000008152508160009080519060200190620000bb929190620001c8565b508060019080519060200190620000d4929190620001c8565b5050506000600190505b6104e2811162000136577fffffffffffffffffffffffffffffffffffffffffffffffffffffffffffffffff600660008381526020019081526020016000208190555080806200012d90620003a7565b915050620000de565b5081600a60006101000a81548173ffffffffffffffffffffffffffffffffffffffff021916908373ffffffffffffffffffffffffffffffffffffffff16021790555033600860006101000a81548173ffffffffffffffffffffffffffffffffffffffff021916908373ffffffffffffffffffffffffffffffffffffffff1602179055508060098190555050506200045a565b828054620001d69062000424565b90600052602060002090601f016020900481019282620001fa576000855562000246565b82601f106200021557805160ff191683800117855562000246565b8280016001018555821562000246579182015b828111156200024557825182559160200191906001019062000228565b5b50905062000255919062000259565b5090565b5b80821115620002745760008160009055506001016200025a565b5090565b600080fd5b600073ffffffffffffffffffffffffffffffffffffffff82169050919050565b6000620002aa826200027d565b9050919050565b6000620002be826200029d565b9050919050565b620002d081620002b1565b8114620002dc57600080fd5b50565b600081519050620002f081620002c5565b92915050565b6000819050919050565b6200030b81620002f6565b81146200031757600080fd5b50565b6000815190506200032b8162000300565b92915050565b600080604083850312156200034b576200034a62000278565b5b60006200035b85828601620002df565b92505060206200036e858286016200031a565b9150509250929050565b7f4e487b7100000000000000000000000000000000000000000000000000000000600052601160045260246000fd5b6000620003b482620002f6565b91507fffffffffffffffffffffffffffffffffffffffffffffffffffffffffffffffff821415620003ea57620003e962000378565b5b600182019050919050565b7f4e487b7100000000000000000000000000000000000000000000000000000000600052602260045260246000fd5b600060028204905060018216806200043d57607f821691505b60208210811415620004545762000453620003f5565b5b50919050565b61300f806200046a6000396000f3fe608060405234801561001057600080fd5b506004361061010b5760003560e01c806370a08231116100a2578063b88d4fde11610071578063b88d4fde146102ca578063c87b56dd146102e6578063d1660f9914610316578063e4b50cb814610332578063e985e9c5146103625761010b565b806370a082311461022e5780637ea3cc5a1461025e57806395d89b4114610290578063a22cb465146102ae5761010b565b8063095ea7b3116100de578063095ea7b3146101aa57806323b872dd146101c657806342842e0e146101e25780636352211e146101fe5761010b565b806301ffc9a714610110578063060d9ee41461014057806306fdde031461015c578063081812fc1461017a575b600080fd5b61012a60048036038101906101259190611c4f565b610392565b6040516101379190611c97565b60405180910390f35b61015a60048036038101906101559190611e8c565b610474565b005b61016461053f565b6040516101719190611f83565b60405180910390f35b610194600480360381019061018f9190611fa5565b6105d1565b6040516101a19190611fe1565b60405180910390f35b6101c460048036038101906101bf9190611ffc565b610656565b005b6101e060048036038101906101db919061203c565b61076e565b005b6101fc60048036038101906101f7919061203c565b6107ce565b005b61021860048036038101906102139190611fa5565b6107ee565b6040516102259190611fe1565b60405180910390f35b6102486004803603810190610243919061208f565b6108a0565b60405161025591906120cb565b60405180910390f35b61027860048036038101906102739190611fa5565b610958565b604051610287939291906120e6565b60405180910390f35b610298610a0a565b6040516102a59190611f83565b60405180910390f35b6102c860048036038101906102c39190612150565b610a9c565b005b6102e460048036038101906102df9190612231565b610ab2565b005b61030060048036038101906102fb9190611fa5565b610b14565b60405161030d9190611f83565b60405180910390f35b610330600480360381019061032b919061203c565b610bbb565b005b61034c60048036038101906103479190611fa5565b610e5d565b60405161035991906122cd565b60405180910390f35b61037c600480360381019061037791906122e8565b610e7a565b6040516103899190611c97565b60405180910390f35b60007f80ac58cd000000000000000000000000000000000000000000000000000000007bffffffffffffffffffffffffffffffffffffffffffffffffffffffff1916827bffffffffffffffffffffffffffffffffffffffffffffffffffffffff1916148061045d57507f5b5e139f000000000000000000000000000000000000000000000000000000007bffffffffffffffffffffffffffffffffffffffffffffffffffffffff1916827bffffffffffffffffffffffffffffffffffffffffffffffffffffffff1916145b8061046d575061046c82610f0e565b5b9050919050565b3373ffffffffffffffffffffffffffffffffffffffff16600860009054906101000a900473ffffffffffffffffffffffffffffffffffffffff1673ffffffffffffffffffffffffffffffffffffffff16146104ce57600080fd5b6104d88383610f78565b604051806060016040528083815260200182815260200142815250600b600084815260200190815260200160002060008201518160000155602082015181600101908051906020019061052c929190611b40565b5060408201518160020155905050505050565b60606000805461054e90612357565b80601f016020809104026020016040519081016040528092919081815260200182805461057a90612357565b80156105c75780601f1061059c576101008083540402835291602001916105c7565b820191906000526020600020905b8154815290600101906020018083116105aa57829003601f168201915b5050505050905090565b60006105dc82610f96565b61061b576040517f08c379a0000000000000000000000000000000000000000000000000000000008152600401610612906123fb565b60405180910390fd5b6004600083815260200190815260200160002060009054906101000a900473ffffffffffffffffffffffffffffffffffffffff169050919050565b6000610661826107ee565b90508073ffffffffffffffffffffffffffffffffffffffff168373ffffffffffffffffffffffffffffffffffffffff1614156106d2576040517f08c379a00000000000000000000000000000000000000000000000000000000081526004016106c99061248d565b60405180910390fd5b8073ffffffffffffffffffffffffffffffffffffffff166106f1611002565b73ffffffffffffffffffffffffffffffffffffffff161480610720575061071f8161071a611002565b610e7a565b5b61075f576040517f08c379a00000000000000000000000000000000000000000000000000000000081526004016107569061251f565b60405180910390fd5b610769838361100a565b505050565b61077f610779611002565b826110c3565b6107be576040517f08c379a00000000000000000000000000000000000000000000000000000000081526004016107b5906125b1565b60405180910390fd5b6107c98383836111a1565b505050565b6107e983838360405180602001604052806000815250610ab2565b505050565b6000806002600084815260200190815260200160002060009054906101000a900473ffffffffffffffffffffffffffffffffffffffff169050600073ffffffffffffffffffffffffffffffffffffffff168173ffffffffffffffffffffffffffffffffffffffff161415610897576040517f08c379a000000000000000000000000000000000000000000000000000000000815260040161088e90612643565b60405180910390fd5b80915050919050565b60008073ffffffffffffffffffffffffffffffffffffffff168273ffffffffffffffffffffffffffffffffffffffff161415610911576040517f08c379a0000000000000000000000000000000000000000000000000000000008152600401610908906126d5565b60405180910390fd5b600360008373ffffffffffffffffffffffffffffffffffffffff1673ffffffffffffffffffffffffffffffffffffffff168152602001908152602001600020549050919050565b600b60205280600052604060002060009150905080600001549080600101805461098190612357565b80601f01602080910402602001604051908101604052809291908181526020018280546109ad90612357565b80156109fa5780601f106109cf576101008083540402835291602001916109fa565b820191906000526020600020905b8154815290600101906020018083116109dd57829003601f168201915b5050505050908060020154905083565b606060018054610a1990612357565b80601f0160208091040260200160405190810160405280929190818152602001828054610a4590612357565b8015610a925780601f10610a6757610100808354040283529160200191610a92565b820191906000526020600020905b815481529060010190602001808311610a7557829003601f168201915b5050505050905090565b610aae610aa7611002565b8383611408565b5050565b610ac3610abd611002565b836110c3565b610b02576040517f08c379a0000000000000000000000000000000000000000000000000000000008152600401610af9906125b1565b60405180910390fd5b610b0e84848484611575565b50505050565b6060610b1f82610f96565b610b5e576040517f08c379a0000000000000000000000000000000000000000000000000000000008152600401610b5590612767565b60405180910390fd5b6000610b686115d1565b90506000815111610b885760405180602001604052806000815250610bb3565b80610b92846115e8565b604051602001610ba39291906127c3565b6040516020818303038152906040525b915050919050565b610bc68383836107ce565b600660008281526020019081526020016000206000815480929190610bea90612816565b919050555060006006600083815260200190815260200160002054148015610c175750610c15611749565b155b15610e585760018110158015610c2f57506103e88111155b15610cdb57600a60009054906101000a900473ffffffffffffffffffffffffffffffffffffffff1673ffffffffffffffffffffffffffffffffffffffff1663a9059cbb83600a6040518363ffffffff1660e01b8152600401610c929291906128a4565b6020604051808303816000875af1158015610cb1573d6000803e3d6000fd5b505050506040513d601f19601f82011682018060405250810190610cd591906128e2565b50610e57565b6103e881118015610cee57506104b08111155b15610d9a57600a60009054906101000a900473ffffffffffffffffffffffffffffffffffffffff1673ffffffffffffffffffffffffffffffffffffffff1663a9059cbb8360326040518363ffffffff1660e01b8152600401610d5192919061294a565b6020604051808303816000875af1158015610d70573d6000803e3d6000fd5b505050506040513d601f19601f82011682018060405250810190610d9491906128e2565b50610e56565b6104b081118015610dad57506104e28111155b15610e5557600a60009054906101000a900473ffffffffffffffffffffffffffffffffffffffff1673ffffffffffffffffffffffffffffffffffffffff1663a9059cbb8360646040518363ffffffff1660e01b8152600401610e109291906129ae565b6020604051808303816000875af1158015610e2f573d6000803e3d6000fd5b505050506040513d601f19601f82011682018060405250810190610e5391906128e2565b505b5b5b5b505050565b600060066000838152602001908152602001600020549050919050565b6000600560008473ffffffffffffffffffffffffffffffffffffffff1673ffffffffffffffffffffffffffffffffffffffff16815260200190815260200160002060008373ffffffffffffffffffffffffffffffffffffffff1673ffffffffffffffffffffffffffffffffffffffff16815260200190815260200160002060009054906101000a900460ff16905092915050565b60007f01ffc9a7000000000000000000000000000000000000000000000000000000007bffffffffffffffffffffffffffffffffffffffffffffffffffffffff1916827bffffffffffffffffffffffffffffffffffffffffffffffffffffffff1916149050919050565b610f92828260405180602001604052806000815250611756565b5050565b60008073ffffffffffffffffffffffffffffffffffffffff166002600084815260200190815260200160002060009054906101000a900473ffffffffffffffffffffffffffffffffffffffff1673ffffffffffffffffffffffffffffffffffffffff1614159050919050565b600033905090565b816004600083815260200190815260200160002060006101000a81548173ffffffffffffffffffffffffffffffffffffffff021916908373ffffffffffffffffffffffffffffffffffffffff160217905550808273ffffffffffffffffffffffffffffffffffffffff1661107d836107ee565b73ffffffffffffffffffffffffffffffffffffffff167f8c5be1e5ebec7d5bd14f71427d1e84f3dd0314c0f7b2291e5b200ac8c7c3b92560405160405180910390a45050565b60006110ce82610f96565b61110d576040517f08c379a000000000000000000000000000000000000000000000000000000000815260040161110490612a49565b60405180910390fd5b6000611118836107ee565b90508073ffffffffffffffffffffffffffffffffffffffff168473ffffffffffffffffffffffffffffffffffffffff16148061118757508373ffffffffffffffffffffffffffffffffffffffff1661116f846105d1565b73ffffffffffffffffffffffffffffffffffffffff16145b8061119857506111978185610e7a565b5b91505092915050565b8273ffffffffffffffffffffffffffffffffffffffff166111c1826107ee565b73ffffffffffffffffffffffffffffffffffffffff1614611217576040517f08c379a000000000000000000000000000000000000000000000000000000000815260040161120e90612adb565b60405180910390fd5b600073ffffffffffffffffffffffffffffffffffffffff168273ffffffffffffffffffffffffffffffffffffffff161415611287576040517f08c379a000000000000000000000000000000000000000000000000000000000815260040161127e90612b6d565b60405180910390fd5b6112928383836117b1565b61129d60008261100a565b6001600360008573ffffffffffffffffffffffffffffffffffffffff1673ffffffffffffffffffffffffffffffffffffffff16815260200190815260200160002060008282546112ed9190612b8d565b925050819055506001600360008473ffffffffffffffffffffffffffffffffffffffff1673ffffffffffffffffffffffffffffffffffffffff16815260200190815260200160002060008282546113449190612bc1565b92505081905550816002600083815260200190815260200160002060006101000a81548173ffffffffffffffffffffffffffffffffffffffff021916908373ffffffffffffffffffffffffffffffffffffffff160217905550808273ffffffffffffffffffffffffffffffffffffffff168473ffffffffffffffffffffffffffffffffffffffff167fddf252ad1be2c89b69c2b068fc378daa952ba7f163c4a11628f55a4df523b3ef60405160405180910390a46114038383836117b6565b505050565b8173ffffffffffffffffffffffffffffffffffffffff168373ffffffffffffffffffffffffffffffffffffffff161415611477576040517f08c379a000000000000000000000000000000000000000000000000000000000815260040161146e90612c63565b60405180910390fd5b80600560008573ffffffffffffffffffffffffffffffffffffffff1673ffffffffffffffffffffffffffffffffffffffff16815260200190815260200160002060008473ffffffffffffffffffffffffffffffffffffffff1673ffffffffffffffffffffffffffffffffffffffff16815260200190815260200160002060006101000a81548160ff0219169083151502179055508173ffffffffffffffffffffffffffffffffffffffff168373ffffffffffffffffffffffffffffffffffffffff167f17307eab39ab6107e8899845ad3d59bd9653f200f220920489ca2b5937696c31836040516115689190611c97565b60405180910390a3505050565b6115808484846111a1565b61158c848484846117bb565b6115cb576040517f08c379a00000000000000000000000000000000000000000000000000000000081526004016115c290612cf5565b60405180910390fd5b50505050565b606060405180602001604052806000815250905090565b60606000821415611630576040518060400160405280600181526020017f30000000000000000000000000000000000000000000000000000000000000008152509050611744565b600082905060005b6000821461166257808061164b90612d15565b915050600a8261165b9190612d8d565b9150611638565b60008167ffffffffffffffff81111561167e5761167d611d61565b5b6040519080825280601f01601f1916602001820160405280156116b05781602001600182028036833780820191505090505b5090505b6000851461173d576001826116c99190612b8d565b9150600a856116d89190612dbe565b60306116e49190612bc1565b60f81b8183815181106116fa576116f9612def565b5b60200101907effffffffffffffffffffffffffffffffffffffffffffffffffffffffffffff1916908160001a905350600a856117369190612d8d565b94506116b4565b8093505050505b919050565b6000600954421015905090565b6117608383611943565b61176d60008484846117bb565b6117ac576040517f08c379a00000000000000000000000000000000000000000000000000000000081526004016117a390612cf5565b60405180910390fd5b505050565b505050565b505050565b60006117dc8473ffffffffffffffffffffffffffffffffffffffff16611b1d565b15611936578373ffffffffffffffffffffffffffffffffffffffff1663150b7a02611805611002565b8786866040518563ffffffff1660e01b81526004016118279493929190612e73565b6020604051808303816000875af192505050801561186357506040513d601f19601f820116820180604052508101906118609190612ed4565b60015b6118e6573d8060008114611893576040519150601f19603f3d011682016040523d82523d6000602084013e611898565b606091505b506000815114156118de576040517f08c379a00000000000000000000000000000000000000000000000000000000081526004016118d590612cf5565b60405180910390fd5b805181602001fd5b63150b7a0260e01b7bffffffffffffffffffffffffffffffffffffffffffffffffffffffff1916817bffffffffffffffffffffffffffffffffffffffffffffffffffffffff19161491505061193b565b600190505b949350505050565b600073ffffffffffffffffffffffffffffffffffffffff168273ffffffffffffffffffffffffffffffffffffffff1614156119b3576040517f08c379a00000000000000000000000000000000000000000000000000000000081526004016119aa90612f4d565b60405180910390fd5b6119bc81610f96565b156119fc576040517f08c379a00000000000000000000000000000000000000000000000000000000081526004016119f390612fb9565b60405180910390fd5b611a08600083836117b1565b6001600360008473ffffffffffffffffffffffffffffffffffffffff1673ffffffffffffffffffffffffffffffffffffffff1681526020019081526020016000206000828254611a589190612bc1565b92505081905550816002600083815260200190815260200160002060006101000a81548173ffffffffffffffffffffffffffffffffffffffff021916908373ffffffffffffffffffffffffffffffffffffffff160217905550808273ffffffffffffffffffffffffffffffffffffffff16600073ffffffffffffffffffffffffffffffffffffffff167fddf252ad1be2c89b69c2b068fc378daa952ba7f163c4a11628f55a4df523b3ef60405160405180910390a4611b19600083836117b6565b5050565b6000808273ffffffffffffffffffffffffffffffffffffffff163b119050919050565b828054611b4c90612357565b90600052602060002090601f016020900481019282611b6e5760008555611bb5565b82601f10611b8757805160ff1916838001178555611bb5565b82800160010185558215611bb5579182015b82811115611bb4578251825591602001919060010190611b99565b5b509050611bc29190611bc6565b5090565b5b80821115611bdf576000816000905550600101611bc7565b5090565b6000604051905090565b600080fd5b600080fd5b60007fffffffff0000000000000000000000000000000000000000000000000000000082169050919050565b611c2c81611bf7565b8114611c3757600080fd5b50565b600081359050611c4981611c23565b92915050565b600060208284031215611c6557611c64611bed565b5b6000611c7384828501611c3a565b91505092915050565b60008115159050919050565b611c9181611c7c565b82525050565b6000602082019050611cac6000830184611c88565b92915050565b600073ffffffffffffffffffffffffffffffffffffffff82169050919050565b6000611cdd82611cb2565b9050919050565b611ced81611cd2565b8114611cf857600080fd5b50565b600081359050611d0a81611ce4565b92915050565b6000819050919050565b611d2381611d10565b8114611d2e57600080fd5b50565b600081359050611d4081611d1a565b92915050565b600080fd5b600080fd5b6000601f19601f8301169050919050565b7f4e487b7100000000000000000000000000000000000000000000000000000000600052604160045260246000fd5b611d9982611d50565b810181811067ffffffffffffffff82111715611db857611db7611d61565b5b80604052505050565b6000611dcb611be3565b9050611dd78282611d90565b919050565b600067ffffffffffffffff821115611df757611df6611d61565b5b611e0082611d50565b9050602081019050919050565b82818337600083830152505050565b6000611e2f611e2a84611ddc565b611dc1565b905082815260208101848484011115611e4b57611e4a611d4b565b5b611e56848285611e0d565b509392505050565b600082601f830112611e7357611e72611d46565b5b8135611e83848260208601611e1c565b91505092915050565b600080600060608486031215611ea557611ea4611bed565b5b6000611eb386828701611cfb565b9350506020611ec486828701611d31565b925050604084013567ffffffffffffffff811115611ee557611ee4611bf2565b5b611ef186828701611e5e565b9150509250925092565b600081519050919050565b600082825260208201905092915050565b60005b83811015611f35578082015181840152602081019050611f1a565b83811115611f44576000848401525b50505050565b6000611f5582611efb565b611f5f8185611f06565b9350611f6f818560208601611f17565b611f7881611d50565b840191505092915050565b60006020820190508181036000830152611f9d8184611f4a565b905092915050565b600060208284031215611fbb57611fba611bed565b5b6000611fc984828501611d31565b91505092915050565b611fdb81611cd2565b82525050565b6000602082019050611ff66000830184611fd2565b92915050565b6000806040838503121561201357612012611bed565b5b600061202185828601611cfb565b925050602061203285828601611d31565b9150509250929050565b60008060006060848603121561205557612054611bed565b5b600061206386828701611cfb565b935050602061207486828701611cfb565b925050604061208586828701611d31565b9150509250925092565b6000602082840312156120a5576120a4611bed565b5b60006120b384828501611cfb565b91505092915050565b6120c581611d10565b82525050565b60006020820190506120e060008301846120bc565b92915050565b60006060820190506120fb60008301866120bc565b818103602083015261210d8185611f4a565b905061211c60408301846120bc565b949350505050565b61212d81611c7c565b811461213857600080fd5b50565b60008135905061214a81612124565b92915050565b6000806040838503121561216757612166611bed565b5b600061217585828601611cfb565b92505060206121868582860161213b565b9150509250929050565b600067ffffffffffffffff8211156121ab576121aa611d61565b5b6121b482611d50565b9050602081019050919050565b60006121d46121cf84612190565b611dc1565b9050828152602081018484840111156121f0576121ef611d4b565b5b6121fb848285611e0d565b509392505050565b600082601f83011261221857612217611d46565b5b81356122288482602086016121c1565b91505092915050565b6000806000806080858703121561224b5761224a611bed565b5b600061225987828801611cfb565b945050602061226a87828801611cfb565b935050604061227b87828801611d31565b925050606085013567ffffffffffffffff81111561229c5761229b611bf2565b5b6122a887828801612203565b91505092959194509250565b6000819050919050565b6122c7816122b4565b82525050565b60006020820190506122e260008301846122be565b92915050565b600080604083850312156122ff576122fe611bed565b5b600061230d85828601611cfb565b925050602061231e85828601611cfb565b9150509250929050565b7f4e487b7100000000000000000000000000000000000000000000000000000000600052602260045260246000fd5b6000600282049050600182168061236f57607f821691505b6020821081141561238357612382612328565b5b50919050565b7f4552433732313a20617070726f76656420717565727920666f72206e6f6e657860008201527f697374656e7420746f6b656e0000000000000000000000000000000000000000602082015250565b60006123e5602c83611f06565b91506123f082612389565b604082019050919050565b60006020820190508181036000830152612414816123d8565b9050919050565b7f4552433732313a20617070726f76616c20746f2063757272656e74206f776e6560008201527f7200000000000000000000000000000000000000000000000000000000000000602082015250565b6000612477602183611f06565b91506124828261241b565b604082019050919050565b600060208201905081810360008301526124a68161246a565b9050919050565b7f4552433732313a20617070726f76652063616c6c6572206973206e6f74206f7760008201527f6e6572206e6f7220617070726f76656420666f7220616c6c0000000000000000602082015250565b6000612509603883611f06565b9150612514826124ad565b604082019050919050565b60006020820190508181036000830152612538816124fc565b9050919050565b7f4552433732313a207472616e736665722063616c6c6572206973206e6f74206f60008201527f776e6572206e6f7220617070726f766564000000000000000000000000000000602082015250565b600061259b603183611f06565b91506125a68261253f565b604082019050919050565b600060208201905081810360008301526125ca8161258e565b9050919050565b7f4552433732313a206f776e657220717565727920666f72206e6f6e657869737460008201527f656e7420746f6b656e0000000000000000000000000000000000000000000000602082015250565b600061262d602983611f06565b9150612638826125d1565b604082019050919050565b6000602082019050818103600083015261265c81612620565b9050919050565b7f4552433732313a2062616c616e636520717565727920666f7220746865207a6560008201527f726f206164647265737300000000000000000000000000000000000000000000602082015250565b60006126bf602a83611f06565b91506126ca82612663565b604082019050919050565b600060208201905081810360008301526126ee816126b2565b9050919050565b7f4552433732314d657461646174613a2055524920717565727920666f72206e6f60008201527f6e6578697374656e7420746f6b656e0000000000000000000000000000000000602082015250565b6000612751602f83611f06565b915061275c826126f5565b604082019050919050565b6000602082019050818103600083015261278081612744565b9050919050565b600081905092915050565b600061279d82611efb565b6127a78185612787565b93506127b7818560208601611f17565b80840191505092915050565b60006127cf8285612792565b91506127db8284612792565b91508190509392505050565b7f4e487b7100000000000000000000000000000000000000000000000000000000600052601160045260246000fd5b6000612821826122b4565b91507f7fffffffffffffffffffffffffffffffffffffffffffffffffffffffffffffff821415612854576128536127e7565b5b600182019050919050565b6000819050919050565b6000819050919050565b600061288e6128896128848461285f565b612869565b611d10565b9050919050565b61289e81612873565b82525050565b60006040820190506128b96000830185611fd2565b6128c66020830184612895565b9392505050565b6000815190506128dc81612124565b92915050565b6000602082840312156128f8576128f7611bed565b5b6000612906848285016128cd565b91505092915050565b6000819050919050565b600061293461292f61292a8461290f565b612869565b611d10565b9050919050565b61294481612919565b82525050565b600060408201905061295f6000830185611fd2565b61296c602083018461293b565b9392505050565b6000819050919050565b600061299861299361298e84612973565b612869565b611d10565b9050919050565b6129a88161297d565b82525050565b60006040820190506129c36000830185611fd2565b6129d0602083018461299f565b9392505050565b7f4552433732313a206f70657261746f7220717565727920666f72206e6f6e657860008201527f697374656e7420746f6b656e0000000000000000000000000000000000000000602082015250565b6000612a33602c83611f06565b9150612a3e826129d7565b604082019050919050565b60006020820190508181036000830152612a6281612a26565b9050919050565b7f4552433732313a207472616e736665722066726f6d20696e636f72726563742060008201527f6f776e6572000000000000000000000000000000000000000000000000000000602082015250565b6000612ac5602583611f06565b9150612ad082612a69565b604082019050919050565b60006020820190508181036000830152612af481612ab8565b9050919050565b7f4552433732313a207472616e7366657220746f20746865207a65726f2061646460008201527f7265737300000000000000000000000000000000000000000000000000000000602082015250565b6000612b57602483611f06565b9150612b6282612afb565b604082019050919050565b60006020820190508181036000830152612b8681612b4a565b9050919050565b6000612b9882611d10565b9150612ba383611d10565b925082821015612bb657612bb56127e7565b5b828203905092915050565b6000612bcc82611d10565b9150612bd783611d10565b9250827fffffffffffffffffffffffffffffffffffffffffffffffffffffffffffffffff03821115612c0c57612c0b6127e7565b5b828201905092915050565b7f4552433732313a20617070726f766520746f2063616c6c657200000000000000600082015250565b6000612c4d601983611f06565b9150612c5882612c17565b602082019050919050565b60006020820190508181036000830152612c7c81612c40565b9050919050565b7f4552433732313a207472616e7366657220746f206e6f6e20455243373231526560008201527f63656976657220696d706c656d656e7465720000000000000000000000000000602082015250565b6000612cdf603283611f06565b9150612cea82612c83565b604082019050919050565b60006020820190508181036000830152612d0e81612cd2565b9050919050565b6000612d2082611d10565b91507fffffffffffffffffffffffffffffffffffffffffffffffffffffffffffffffff821415612d5357612d526127e7565b5b600182019050919050565b7f4e487b7100000000000000000000000000000000000000000000000000000000600052601260045260246000fd5b6000612d9882611d10565b9150612da383611d10565b925082612db357612db2612d5e565b5b828204905092915050565b6000612dc982611d10565b9150612dd483611d10565b925082612de457612de3612d5e565b5b828206905092915050565b7f4e487b7100000000000000000000000000000000000000000000000000000000600052603260045260246000fd5b600081519050919050565b600082825260208201905092915050565b6000612e4582612e1e565b612e4f8185612e29565b9350612e5f818560208601611f17565b612e6881611d50565b840191505092915050565b6000608082019050612e886000830187611fd2565b612e956020830186611fd2565b612ea260408301856120bc565b8181036060830152612eb48184612e3a565b905095945050505050565b600081519050612ece81611c23565b92915050565b600060208284031215612eea57612ee9611bed565b5b6000612ef884828501612ebf565b91505092915050565b7f4552433732313a206d696e7420746f20746865207a65726f2061646472657373600082015250565b6000612f37602083611f06565b9150612f4282612f01565b602082019050919050565b60006020820190508181036000830152612f6681612f2a565b9050919050565b7f4552433732313a20746f6b656e20616c7265616479206d696e74656400000000600082015250565b6000612fa3601c83611f06565b9150612fae82612f6d565b602082019050919050565b60006020820190508181036000830152612fd281612f96565b905091905056fea264697066735822122081f114a992fd42d66805afd751af14835396c1a0bff093b1ba7a79891a8bbde464736f6c634300080b0033",
  "immutableReferences": {},
  "source": "//SPDX-License-Identifier: UNLICENSED\npragma solidity ^0.8.10;\n\nimport \"@openzeppelin/contracts/access/Ownable.sol\";\nimport \"@openzeppelin/contracts/token/ERC721/ERC721.sol\";\nimport \"@openzeppelin/contracts/token/ERC20/ERC20.sol\";\n\n\ncontract HRC721 is ERC721(\"Blu3DAO\",\"Blu3\"){\n    mapping(uint256 => int256) private tokenIdMappings;\n    address addressOwner;\n    address private owner;\n    uint expiryDate;\n\n    ERC20 bluTokenAddress;\n\n    struct Metadata{\n        uint256 tokenID;\n        string tokenURI;\n        uint256 timestamp;\n    }\n\n    mapping(uint256 => Metadata) public metadataMappings;\n\n    constructor(ERC20 _token,uint airdropExpiry) {\n     for(uint256 i=1; i<=1250; i++) {\n           tokenIdMappings[i] = -1;\n        }\n     bluTokenAddress = _token;\n     owner = msg.sender;\n     expiryDate=airdropExpiry;\n    }\n\n    function safemint(address user,uint256 tokenID, string memory tokenURI) public {\n      require(owner == msg.sender);\n      _safeMint(user, tokenID); \n        metadataMappings[tokenID] = Metadata({timestamp: block.timestamp, tokenID: tokenID, tokenURI: tokenURI});\n    }\n\n    function getToken(uint256 tokenID) public view returns (int256) {\n        return tokenIdMappings[tokenID];\n    }\n\n    function safeTransfer(address from, address to, uint256 tokenID) public\n    {\n       safeTransferFrom(from,to,tokenID);\n       tokenIdMappings[tokenID]++;\n       if(tokenIdMappings[tokenID]==0 && !isExpired())\n       {\n           if(tokenID>=1 && tokenID <=1000)\n             bluTokenAddress.transfer(to,10);\n           else if(tokenID>1000 && tokenID <=1200)\n             bluTokenAddress.transfer(to,50);  \n           else if(tokenID>1200 && tokenID <=1250)\n              bluTokenAddress.transfer(to,100);    \n       }\n    }\n\n     function isExpired() private view returns (bool) {\n        return (block.timestamp >= expiryDate);\n  }\n     \n}",
  "sourcePath": "/Users/shankarraomata/Documents/money_boss/smartcontracts/contracts/HRC721.sol",
  "compiler": {
    "name": "solc",
    "version": "0.8.11+commit.d7f03943.Emscripten.clang"
  },
  "schemaVersion": "3.4.4",
  "updatedAt": "2022-02-10T02:36:17.044Z",
  "devdoc": {
    "kind": "dev",
    "methods": {
      "approve(address,uint256)": {
        "details": "See {IERC721-approve}."
      },
      "balanceOf(address)": {
        "details": "See {IERC721-balanceOf}."
      },
      "getApproved(uint256)": {
        "details": "See {IERC721-getApproved}."
      },
      "isApprovedForAll(address,address)": {
        "details": "See {IERC721-isApprovedForAll}."
      },
      "name()": {
        "details": "See {IERC721Metadata-name}."
      },
      "ownerOf(uint256)": {
        "details": "See {IERC721-ownerOf}."
      },
      "safeTransferFrom(address,address,uint256)": {
        "details": "See {IERC721-safeTransferFrom}."
      },
      "safeTransferFrom(address,address,uint256,bytes)": {
        "details": "See {IERC721-safeTransferFrom}."
      },
      "setApprovalForAll(address,bool)": {
        "details": "See {IERC721-setApprovalForAll}."
      },
      "supportsInterface(bytes4)": {
        "details": "See {IERC165-supportsInterface}."
      },
      "symbol()": {
        "details": "See {IERC721Metadata-symbol}."
      },
      "tokenURI(uint256)": {
        "details": "See {IERC721Metadata-tokenURI}."
      },
      "transferFrom(address,address,uint256)": {
        "details": "See {IERC721-transferFrom}."
      }
    },
    "version": 1
  },
  "userdoc": {
    "kind": "user",
    "methods": {},
    "version": 1
  }
}